{
	"contracts/5_Theif.sol": {
		"theifDetails": {
			"abi": [
				{
					"inputs": [
						{
							"internalType": "string",
							"name": "",
							"type": "string"
						}
					],
					"name": "accountaddress",
					"outputs": [
						{
							"internalType": "uint256",
							"name": "",
							"type": "uint256"
						}
					],
					"stateMutability": "view",
					"type": "function"
				},
				{
					"inputs": [
						{
							"internalType": "uint256",
							"name": "_accountaddress",
							"type": "uint256"
						},
						{
							"internalType": "string",
							"name": "_name",
							"type": "string"
						},
						{
							"internalType": "string",
							"name": "_aadhar",
							"type": "string"
						}
					],
					"name": "counttheifs",
					"outputs": [],
					"stateMutability": "nonpayable",
					"type": "function"
				},
				{
					"inputs": [
						{
							"internalType": "uint256",
							"name": "_accountaddress",
							"type": "uint256"
						},
						{
							"internalType": "string",
							"name": "_name",
							"type": "string"
						},
						{
							"internalType": "string",
							"name": "_aadhar",
							"type": "string"
						}
					],
					"name": "gettheifs",
					"outputs": [],
					"stateMutability": "nonpayable",
					"type": "function"
				},
				{
					"inputs": [
						{
							"internalType": "uint256",
							"name": "_accountaddress",
							"type": "uint256"
						},
						{
							"internalType": "string",
							"name": "_name",
							"type": "string"
						},
						{
							"internalType": "string",
							"name": "_aadhar",
							"type": "string"
						}
					],
					"name": "getupdateDetails",
					"outputs": [],
					"stateMutability": "nonpayable",
					"type": "function"
				},
				{
					"inputs": [
						{
							"internalType": "uint256",
							"name": "_accountaddress",
							"type": "uint256"
						},
						{
							"internalType": "string",
							"name": "_name",
							"type": "string"
						},
						{
							"internalType": "string",
							"name": "_aadhar",
							"type": "string"
						}
					],
					"name": "insertDetails",
					"outputs": [],
					"stateMutability": "nonpayable",
					"type": "function"
				},
				{
					"inputs": [
						{
							"internalType": "uint256",
							"name": "",
							"type": "uint256"
						}
					],
					"name": "theif",
					"outputs": [
						{
							"internalType": "string",
							"name": "name",
							"type": "string"
						},
						{
							"internalType": "string",
							"name": "aadhar",
							"type": "string"
						},
						{
							"internalType": "uint256",
							"name": "accountaddress",
							"type": "uint256"
						}
					],
					"stateMutability": "view",
					"type": "function"
				},
				{
					"inputs": [
						{
							"internalType": "uint256",
							"name": "_accountaddress",
							"type": "uint256"
						},
						{
							"internalType": "string",
							"name": "_name",
							"type": "string"
						},
						{
							"internalType": "string",
							"name": "_aadhar",
							"type": "string"
						}
					],
					"name": "updateDetails",
					"outputs": [],
					"stateMutability": "nonpayable",
					"type": "function"
				},
				{
					"inputs": [
						{
							"internalType": "uint256",
							"name": "_accountaddress",
							"type": "uint256"
						}
					],
					"name": "validatetheif",
					"outputs": [
						{
							"internalType": "bool",
							"name": "",
							"type": "bool"
						}
					],
					"stateMutability": "nonpayable",
					"type": "function"
				}
			],
			"devdoc": {
				"kind": "dev",
				"methods": {},
				"version": 1
			},
			"evm": {
				"assembly": "    /* \"contracts/5_Theif.sol\":27:1301  contract theifDetails {... */\n  mstore(0x40, 0x80)\n  callvalue\n  dup1\n  iszero\n  tag_1\n  jumpi\n  0x00\n  dup1\n  revert\ntag_1:\n  pop\n  dataSize(sub_0)\n  dup1\n  dataOffset(sub_0)\n  0x00\n  codecopy\n  0x00\n  return\nstop\n\nsub_0: assembly {\n        /* \"contracts/5_Theif.sol\":27:1301  contract theifDetails {... */\n      mstore(0x40, 0x80)\n      callvalue\n      dup1\n      iszero\n      tag_1\n      jumpi\n      0x00\n      dup1\n      revert\n    tag_1:\n      pop\n      jumpi(tag_2, lt(calldatasize, 0x04))\n      shr(0xe0, calldataload(0x00))\n      dup1\n      0xbc4bfa85\n      gt\n      tag_11\n      jumpi\n      dup1\n      0xbc4bfa85\n      eq\n      tag_7\n      jumpi\n      dup1\n      0xbd19828c\n      eq\n      tag_8\n      jumpi\n      dup1\n      0xd08d592a\n      eq\n      tag_9\n      jumpi\n      dup1\n      0xd225aa6d\n      eq\n      tag_10\n      jumpi\n      jump(tag_2)\n    tag_11:\n      dup1\n      0x076e3162\n      eq\n      tag_3\n      jumpi\n      dup1\n      0x1dfdb1cb\n      eq\n      tag_4\n      jumpi\n      dup1\n      0x201d54fb\n      eq\n      tag_5\n      jumpi\n      dup1\n      0x564c208a\n      eq\n      tag_6\n      jumpi\n    tag_2:\n      0x00\n      dup1\n      revert\n        /* \"contracts/5_Theif.sol\":1176:1298  function validatetheif(uint256 _accountaddress) public returns (bool) {... */\n    tag_3:\n      tag_12\n      0x04\n      dup1\n      calldatasize\n      sub\n      dup2\n      add\n      swap1\n      tag_13\n      swap2\n      swap1\n      tag_14\n      jump\t// in\n    tag_13:\n      tag_15\n      jump\t// in\n    tag_12:\n      mload(0x40)\n      tag_16\n      swap2\n      swap1\n      tag_17\n      jump\t// in\n    tag_16:\n      mload(0x40)\n      dup1\n      swap2\n      sub\n      swap1\n      return\n        /* \"contracts/5_Theif.sol\":284:452  function insertDetails(uint256 _accountaddress, string memory _name, string memory _aadhar) public {... */\n    tag_4:\n      tag_18\n      0x04\n      dup1\n      calldatasize\n      sub\n      dup2\n      add\n      swap1\n      tag_19\n      swap2\n      swap1\n      tag_20\n      jump\t// in\n    tag_19:\n      tag_21\n      jump\t// in\n    tag_18:\n      stop\n        /* \"contracts/5_Theif.sol\":461:629  function  updateDetails(uint256 _accountaddress, string memory _name, string memory _aadhar) public {... */\n    tag_5:\n      tag_22\n      0x04\n      dup1\n      calldatasize\n      sub\n      dup2\n      add\n      swap1\n      tag_23\n      swap2\n      swap1\n      tag_20\n      jump\t// in\n    tag_23:\n      tag_24\n      jump\t// in\n    tag_22:\n      stop\n        /* \"contracts/5_Theif.sol\":641:811  function getupdateDetails(uint256 _accountaddress, string memory _name, string memory _aadhar)  public {... */\n    tag_6:\n      tag_25\n      0x04\n      dup1\n      calldatasize\n      sub\n      dup2\n      add\n      swap1\n      tag_26\n      swap2\n      swap1\n      tag_20\n      jump\t// in\n    tag_26:\n      tag_27\n      jump\t// in\n    tag_25:\n      stop\n        /* \"contracts/5_Theif.sol\":191:240  mapping (string => uint256) public accountaddress */\n    tag_7:\n      tag_28\n      0x04\n      dup1\n      calldatasize\n      sub\n      dup2\n      add\n      swap1\n      tag_29\n      swap2\n      swap1\n      tag_30\n      jump\t// in\n    tag_29:\n      tag_31\n      jump\t// in\n    tag_28:\n      mload(0x40)\n      tag_32\n      swap2\n      swap1\n      tag_33\n      jump\t// in\n    tag_32:\n      mload(0x40)\n      dup1\n      swap2\n      sub\n      swap1\n      return\n        /* \"contracts/5_Theif.sol\":164:184  Theif[] public theif */\n    tag_8:\n      tag_34\n      0x04\n      dup1\n      calldatasize\n      sub\n      dup2\n      add\n      swap1\n      tag_35\n      swap2\n      swap1\n      tag_14\n      jump\t// in\n    tag_35:\n      tag_36\n      jump\t// in\n    tag_34:\n      mload(0x40)\n      tag_37\n      swap4\n      swap3\n      swap2\n      swap1\n      tag_38\n      jump\t// in\n    tag_37:\n      mload(0x40)\n      dup1\n      swap2\n      sub\n      swap1\n      return\n        /* \"contracts/5_Theif.sol\":1000:1166  function counttheifs(uint256 _accountaddress, string memory _name, string memory _aadhar) public {... */\n    tag_9:\n      tag_39\n      0x04\n      dup1\n      calldatasize\n      sub\n      dup2\n      add\n      swap1\n      tag_40\n      swap2\n      swap1\n      tag_20\n      jump\t// in\n    tag_40:\n      tag_41\n      jump\t// in\n    tag_39:\n      stop\n        /* \"contracts/5_Theif.sol\":819:992  function gettheifs(uint256 _accountaddress, string memory _name, string memory _aadhar) public  {... */\n    tag_10:\n      tag_42\n      0x04\n      dup1\n      calldatasize\n      sub\n      dup2\n      add\n      swap1\n      tag_43\n      swap2\n      swap1\n      tag_20\n      jump\t// in\n    tag_43:\n      tag_44\n      jump\t// in\n    tag_42:\n      stop\n        /* \"contracts/5_Theif.sol\":1176:1298  function validatetheif(uint256 _accountaddress) public returns (bool) {... */\n    tag_15:\n        /* \"contracts/5_Theif.sol\":1240:1244  bool */\n      0x00\n        /* \"contracts/5_Theif.sol\":1258:1288  validatetheif(_accountaddress) */\n      tag_46\n        /* \"contracts/5_Theif.sol\":1272:1287  _accountaddress */\n      dup3\n        /* \"contracts/5_Theif.sol\":1258:1271  validatetheif */\n      tag_15\n        /* \"contracts/5_Theif.sol\":1258:1288  validatetheif(_accountaddress) */\n      jump\t// in\n    tag_46:\n        /* \"contracts/5_Theif.sol\":1257:1289  (validatetheif(_accountaddress)) */\n      pop\n        /* \"contracts/5_Theif.sol\":1176:1298  function validatetheif(uint256 _accountaddress) public returns (bool) {... */\n      swap2\n      swap1\n      pop\n      jump\t// out\n        /* \"contracts/5_Theif.sol\":284:452  function insertDetails(uint256 _accountaddress, string memory _name, string memory _aadhar) public {... */\n    tag_21:\n        /* \"contracts/5_Theif.sol\":393:398  theif */\n      0x00\n        /* \"contracts/5_Theif.sol\":404:443  Theif( _name, _aadhar, _accountaddress) */\n      mload(0x40)\n      dup1\n      0x60\n      add\n      0x40\n      mstore\n      dup1\n        /* \"contracts/5_Theif.sol\":411:416  _name */\n      dup5\n        /* \"contracts/5_Theif.sol\":404:443  Theif( _name, _aadhar, _accountaddress) */\n      dup2\n      mstore\n      0x20\n      add\n        /* \"contracts/5_Theif.sol\":418:425  _aadhar */\n      dup4\n        /* \"contracts/5_Theif.sol\":404:443  Theif( _name, _aadhar, _accountaddress) */\n      dup2\n      mstore\n      0x20\n      add\n        /* \"contracts/5_Theif.sol\":427:442  _accountaddress */\n      dup6\n        /* \"contracts/5_Theif.sol\":404:443  Theif( _name, _aadhar, _accountaddress) */\n      dup2\n      mstore\n      pop\n        /* \"contracts/5_Theif.sol\":393:444  theif.push(Theif( _name, _aadhar, _accountaddress)) */\n      swap1\n      dup1\n      0x01\n      dup2\n      sload\n      add\n      dup1\n      dup3\n      sstore\n      dup1\n      swap2\n      pop\n      pop\n      0x01\n      swap1\n      sub\n      swap1\n      0x00\n      mstore\n      keccak256(0x00, 0x20)\n      swap1\n      0x03\n      mul\n      add\n      0x00\n      swap1\n      swap2\n      swap1\n      swap2\n      swap1\n      swap2\n      pop\n      0x00\n      dup3\n      add\n      mload\n      dup2\n      0x00\n      add\n      swap1\n      dup2\n      tag_49\n      swap2\n      swap1\n      tag_50\n      jump\t// in\n    tag_49:\n      pop\n      0x20\n      dup3\n      add\n      mload\n      dup2\n      0x01\n      add\n      swap1\n      dup2\n      tag_51\n      swap2\n      swap1\n      tag_50\n      jump\t// in\n    tag_51:\n      pop\n      0x40\n      dup3\n      add\n      mload\n      dup2\n      0x02\n      add\n      sstore\n      pop\n      pop\n        /* \"contracts/5_Theif.sol\":284:452  function insertDetails(uint256 _accountaddress, string memory _name, string memory _aadhar) public {... */\n      pop\n      pop\n      pop\n      jump\t// out\n        /* \"contracts/5_Theif.sol\":461:629  function  updateDetails(uint256 _accountaddress, string memory _name, string memory _aadhar) public {... */\n    tag_24:\n        /* \"contracts/5_Theif.sol\":571:576  theif */\n      0x00\n        /* \"contracts/5_Theif.sol\":582:620  Theif(_name, _aadhar, _accountaddress) */\n      mload(0x40)\n      dup1\n      0x60\n      add\n      0x40\n      mstore\n      dup1\n        /* \"contracts/5_Theif.sol\":588:593  _name */\n      dup5\n        /* \"contracts/5_Theif.sol\":582:620  Theif(_name, _aadhar, _accountaddress) */\n      dup2\n      mstore\n      0x20\n      add\n        /* \"contracts/5_Theif.sol\":595:602  _aadhar */\n      dup4\n        /* \"contracts/5_Theif.sol\":582:620  Theif(_name, _aadhar, _accountaddress) */\n      dup2\n      mstore\n      0x20\n      add\n        /* \"contracts/5_Theif.sol\":604:619  _accountaddress */\n      dup6\n        /* \"contracts/5_Theif.sol\":582:620  Theif(_name, _aadhar, _accountaddress) */\n      dup2\n      mstore\n      pop\n        /* \"contracts/5_Theif.sol\":571:621  theif.push(Theif(_name, _aadhar, _accountaddress)) */\n      swap1\n      dup1\n      0x01\n      dup2\n      sload\n      add\n      dup1\n      dup3\n      sstore\n      dup1\n      swap2\n      pop\n      pop\n      0x01\n      swap1\n      sub\n      swap1\n      0x00\n      mstore\n      keccak256(0x00, 0x20)\n      swap1\n      0x03\n      mul\n      add\n      0x00\n      swap1\n      swap2\n      swap1\n      swap2\n      swap1\n      swap2\n      pop\n      0x00\n      dup3\n      add\n      mload\n      dup2\n      0x00\n      add\n      swap1\n      dup2\n      tag_54\n      swap2\n      swap1\n      tag_50\n      jump\t// in\n    tag_54:\n      pop\n      0x20\n      dup3\n      add\n      mload\n      dup2\n      0x01\n      add\n      swap1\n      dup2\n      tag_55\n      swap2\n      swap1\n      tag_50\n      jump\t// in\n    tag_55:\n      pop\n      0x40\n      dup3\n      add\n      mload\n      dup2\n      0x02\n      add\n      sstore\n      pop\n      pop\n        /* \"contracts/5_Theif.sol\":461:629  function  updateDetails(uint256 _accountaddress, string memory _name, string memory _aadhar) public {... */\n      pop\n      pop\n      pop\n      jump\t// out\n        /* \"contracts/5_Theif.sol\":641:811  function getupdateDetails(uint256 _accountaddress, string memory _name, string memory _aadhar)  public {... */\n    tag_27:\n        /* \"contracts/5_Theif.sol\":753:758  theif */\n      0x00\n        /* \"contracts/5_Theif.sol\":764:802  Theif(_name, _aadhar, _accountaddress) */\n      mload(0x40)\n      dup1\n      0x60\n      add\n      0x40\n      mstore\n      dup1\n        /* \"contracts/5_Theif.sol\":770:775  _name */\n      dup5\n        /* \"contracts/5_Theif.sol\":764:802  Theif(_name, _aadhar, _accountaddress) */\n      dup2\n      mstore\n      0x20\n      add\n        /* \"contracts/5_Theif.sol\":777:784  _aadhar */\n      dup4\n        /* \"contracts/5_Theif.sol\":764:802  Theif(_name, _aadhar, _accountaddress) */\n      dup2\n      mstore\n      0x20\n      add\n        /* \"contracts/5_Theif.sol\":786:801  _accountaddress */\n      dup6\n        /* \"contracts/5_Theif.sol\":764:802  Theif(_name, _aadhar, _accountaddress) */\n      dup2\n      mstore\n      pop\n        /* \"contracts/5_Theif.sol\":753:803  theif.push(Theif(_name, _aadhar, _accountaddress)) */\n      swap1\n      dup1\n      0x01\n      dup2\n      sload\n      add\n      dup1\n      dup3\n      sstore\n      dup1\n      swap2\n      pop\n      pop\n      0x01\n      swap1\n      sub\n      swap1\n      0x00\n      mstore\n      keccak256(0x00, 0x20)\n      swap1\n      0x03\n      mul\n      add\n      0x00\n      swap1\n      swap2\n      swap1\n      swap2\n      swap1\n      swap2\n      pop\n      0x00\n      dup3\n      add\n      mload\n      dup2\n      0x00\n      add\n      swap1\n      dup2\n      tag_58\n      swap2\n      swap1\n      tag_50\n      jump\t// in\n    tag_58:\n      pop\n      0x20\n      dup3\n      add\n      mload\n      dup2\n      0x01\n      add\n      swap1\n      dup2\n      tag_59\n      swap2\n      swap1\n      tag_50\n      jump\t// in\n    tag_59:\n      pop\n      0x40\n      dup3\n      add\n      mload\n      dup2\n      0x02\n      add\n      sstore\n      pop\n      pop\n        /* \"contracts/5_Theif.sol\":641:811  function getupdateDetails(uint256 _accountaddress, string memory _name, string memory _aadhar)  public {... */\n      pop\n      pop\n      pop\n      jump\t// out\n        /* \"contracts/5_Theif.sol\":191:240  mapping (string => uint256) public accountaddress */\n    tag_31:\n      0x01\n      dup2\n      dup1\n      mload\n      0x20\n      dup2\n      add\n      dup3\n      add\n      dup1\n      mload\n      dup5\n      dup3\n      mstore\n      0x20\n      dup4\n      add\n      0x20\n      dup6\n      add\n      keccak256\n      dup2\n      dup4\n      mstore\n      dup1\n      swap6\n      pop\n      pop\n      pop\n      pop\n      pop\n      pop\n      0x00\n      swap2\n      pop\n      swap1\n      pop\n      sload\n      dup2\n      jump\t// out\n        /* \"contracts/5_Theif.sol\":164:184  Theif[] public theif */\n    tag_36:\n      0x00\n      dup2\n      dup2\n      sload\n      dup2\n      lt\n      tag_60\n      jumpi\n      0x00\n      dup1\n      revert\n    tag_60:\n      swap1\n      0x00\n      mstore\n      keccak256(0x00, 0x20)\n      swap1\n      0x03\n      mul\n      add\n      0x00\n      swap2\n      pop\n      swap1\n      pop\n      dup1\n      0x00\n      add\n      dup1\n      sload\n      tag_62\n      swap1\n      tag_63\n      jump\t// in\n    tag_62:\n      dup1\n      0x1f\n      add\n      0x20\n      dup1\n      swap2\n      div\n      mul\n      0x20\n      add\n      mload(0x40)\n      swap1\n      dup2\n      add\n      0x40\n      mstore\n      dup1\n      swap3\n      swap2\n      swap1\n      dup2\n      dup2\n      mstore\n      0x20\n      add\n      dup3\n      dup1\n      sload\n      tag_64\n      swap1\n      tag_63\n      jump\t// in\n    tag_64:\n      dup1\n      iszero\n      tag_65\n      jumpi\n      dup1\n      0x1f\n      lt\n      tag_66\n      jumpi\n      0x0100\n      dup1\n      dup4\n      sload\n      div\n      mul\n      dup4\n      mstore\n      swap2\n      0x20\n      add\n      swap2\n      jump(tag_65)\n    tag_66:\n      dup3\n      add\n      swap2\n      swap1\n      0x00\n      mstore\n      keccak256(0x00, 0x20)\n      swap1\n    tag_67:\n      dup2\n      sload\n      dup2\n      mstore\n      swap1\n      0x01\n      add\n      swap1\n      0x20\n      add\n      dup1\n      dup4\n      gt\n      tag_67\n      jumpi\n      dup3\n      swap1\n      sub\n      0x1f\n      and\n      dup3\n      add\n      swap2\n    tag_65:\n      pop\n      pop\n      pop\n      pop\n      pop\n      swap1\n      dup1\n      0x01\n      add\n      dup1\n      sload\n      tag_68\n      swap1\n      tag_63\n      jump\t// in\n    tag_68:\n      dup1\n      0x1f\n      add\n      0x20\n      dup1\n      swap2\n      div\n      mul\n      0x20\n      add\n      mload(0x40)\n      swap1\n      dup2\n      add\n      0x40\n      mstore\n      dup1\n      swap3\n      swap2\n      swap1\n      dup2\n      dup2\n      mstore\n      0x20\n      add\n      dup3\n      dup1\n      sload\n      tag_69\n      swap1\n      tag_63\n      jump\t// in\n    tag_69:\n      dup1\n      iszero\n      tag_70\n      jumpi\n      dup1\n      0x1f\n      lt\n      tag_71\n      jumpi\n      0x0100\n      dup1\n      dup4\n      sload\n      div\n      mul\n      dup4\n      mstore\n      swap2\n      0x20\n      add\n      swap2\n      jump(tag_70)\n    tag_71:\n      dup3\n      add\n      swap2\n      swap1\n      0x00\n      mstore\n      keccak256(0x00, 0x20)\n      swap1\n    tag_72:\n      dup2\n      sload\n      dup2\n      mstore\n      swap1\n      0x01\n      add\n      swap1\n      0x20\n      add\n      dup1\n      dup4\n      gt\n      tag_72\n      jumpi\n      dup3\n      swap1\n      sub\n      0x1f\n      and\n      dup3\n      add\n      swap2\n    tag_70:\n      pop\n      pop\n      pop\n      pop\n      pop\n      swap1\n      dup1\n      0x02\n      add\n      sload\n      swap1\n      pop\n      dup4\n      jump\t// out\n        /* \"contracts/5_Theif.sol\":1000:1166  function counttheifs(uint256 _accountaddress, string memory _name, string memory _aadhar) public {... */\n    tag_41:\n        /* \"contracts/5_Theif.sol\":1108:1113  theif */\n      0x00\n        /* \"contracts/5_Theif.sol\":1119:1157  Theif(_name, _aadhar, _accountaddress) */\n      mload(0x40)\n      dup1\n      0x60\n      add\n      0x40\n      mstore\n      dup1\n        /* \"contracts/5_Theif.sol\":1125:1130  _name */\n      dup5\n        /* \"contracts/5_Theif.sol\":1119:1157  Theif(_name, _aadhar, _accountaddress) */\n      dup2\n      mstore\n      0x20\n      add\n        /* \"contracts/5_Theif.sol\":1132:1139  _aadhar */\n      dup4\n        /* \"contracts/5_Theif.sol\":1119:1157  Theif(_name, _aadhar, _accountaddress) */\n      dup2\n      mstore\n      0x20\n      add\n        /* \"contracts/5_Theif.sol\":1141:1156  _accountaddress */\n      dup6\n        /* \"contracts/5_Theif.sol\":1119:1157  Theif(_name, _aadhar, _accountaddress) */\n      dup2\n      mstore\n      pop\n        /* \"contracts/5_Theif.sol\":1108:1158  theif.push(Theif(_name, _aadhar, _accountaddress)) */\n      swap1\n      dup1\n      0x01\n      dup2\n      sload\n      add\n      dup1\n      dup3\n      sstore\n      dup1\n      swap2\n      pop\n      pop\n      0x01\n      swap1\n      sub\n      swap1\n      0x00\n      mstore\n      keccak256(0x00, 0x20)\n      swap1\n      0x03\n      mul\n      add\n      0x00\n      swap1\n      swap2\n      swap1\n      swap2\n      swap1\n      swap2\n      pop\n      0x00\n      dup3\n      add\n      mload\n      dup2\n      0x00\n      add\n      swap1\n      dup2\n      tag_75\n      swap2\n      swap1\n      tag_50\n      jump\t// in\n    tag_75:\n      pop\n      0x20\n      dup3\n      add\n      mload\n      dup2\n      0x01\n      add\n      swap1\n      dup2\n      tag_76\n      swap2\n      swap1\n      tag_50\n      jump\t// in\n    tag_76:\n      pop\n      0x40\n      dup3\n      add\n      mload\n      dup2\n      0x02\n      add\n      sstore\n      pop\n      pop\n        /* \"contracts/5_Theif.sol\":1000:1166  function counttheifs(uint256 _accountaddress, string memory _name, string memory _aadhar) public {... */\n      pop\n      pop\n      pop\n      jump\t// out\n        /* \"contracts/5_Theif.sol\":819:992  function gettheifs(uint256 _accountaddress, string memory _name, string memory _aadhar) public  {... */\n    tag_44:\n        /* \"contracts/5_Theif.sol\":934:939  theif */\n      0x00\n        /* \"contracts/5_Theif.sol\":945:983  Theif(_name, _aadhar, _accountaddress) */\n      mload(0x40)\n      dup1\n      0x60\n      add\n      0x40\n      mstore\n      dup1\n        /* \"contracts/5_Theif.sol\":951:956  _name */\n      dup5\n        /* \"contracts/5_Theif.sol\":945:983  Theif(_name, _aadhar, _accountaddress) */\n      dup2\n      mstore\n      0x20\n      add\n        /* \"contracts/5_Theif.sol\":958:965  _aadhar */\n      dup4\n        /* \"contracts/5_Theif.sol\":945:983  Theif(_name, _aadhar, _accountaddress) */\n      dup2\n      mstore\n      0x20\n      add\n        /* \"contracts/5_Theif.sol\":967:982  _accountaddress */\n      dup6\n        /* \"contracts/5_Theif.sol\":945:983  Theif(_name, _aadhar, _accountaddress) */\n      dup2\n      mstore\n      pop\n        /* \"contracts/5_Theif.sol\":934:984  theif.push(Theif(_name, _aadhar, _accountaddress)) */\n      swap1\n      dup1\n      0x01\n      dup2\n      sload\n      add\n      dup1\n      dup3\n      sstore\n      dup1\n      swap2\n      pop\n      pop\n      0x01\n      swap1\n      sub\n      swap1\n      0x00\n      mstore\n      keccak256(0x00, 0x20)\n      swap1\n      0x03\n      mul\n      add\n      0x00\n      swap1\n      swap2\n      swap1\n      swap2\n      swap1\n      swap2\n      pop\n      0x00\n      dup3\n      add\n      mload\n      dup2\n      0x00\n      add\n      swap1\n      dup2\n      tag_79\n      swap2\n      swap1\n      tag_50\n      jump\t// in\n    tag_79:\n      pop\n      0x20\n      dup3\n      add\n      mload\n      dup2\n      0x01\n      add\n      swap1\n      dup2\n      tag_80\n      swap2\n      swap1\n      tag_50\n      jump\t// in\n    tag_80:\n      pop\n      0x40\n      dup3\n      add\n      mload\n      dup2\n      0x02\n      add\n      sstore\n      pop\n      pop\n        /* \"contracts/5_Theif.sol\":819:992  function gettheifs(uint256 _accountaddress, string memory _name, string memory _aadhar) public  {... */\n      pop\n      pop\n      pop\n      jump\t// out\n        /* \"#utility.yul\":7:82   */\n    tag_81:\n        /* \"#utility.yul\":40:46   */\n      0x00\n        /* \"#utility.yul\":73:75   */\n      0x40\n        /* \"#utility.yul\":67:76   */\n      mload\n        /* \"#utility.yul\":57:76   */\n      swap1\n      pop\n        /* \"#utility.yul\":7:82   */\n      swap1\n      jump\t// out\n        /* \"#utility.yul\":88:205   */\n    tag_82:\n        /* \"#utility.yul\":197:198   */\n      0x00\n        /* \"#utility.yul\":194:195   */\n      dup1\n        /* \"#utility.yul\":187:199   */\n      revert\n        /* \"#utility.yul\":211:328   */\n    tag_83:\n        /* \"#utility.yul\":320:321   */\n      0x00\n        /* \"#utility.yul\":317:318   */\n      dup1\n        /* \"#utility.yul\":310:322   */\n      revert\n        /* \"#utility.yul\":334:411   */\n    tag_84:\n        /* \"#utility.yul\":371:378   */\n      0x00\n        /* \"#utility.yul\":400:405   */\n      dup2\n        /* \"#utility.yul\":389:405   */\n      swap1\n      pop\n        /* \"#utility.yul\":334:411   */\n      swap2\n      swap1\n      pop\n      jump\t// out\n        /* \"#utility.yul\":417:539   */\n    tag_85:\n        /* \"#utility.yul\":490:514   */\n      tag_126\n        /* \"#utility.yul\":508:513   */\n      dup2\n        /* \"#utility.yul\":490:514   */\n      tag_84\n      jump\t// in\n    tag_126:\n        /* \"#utility.yul\":483:488   */\n      dup2\n        /* \"#utility.yul\":480:515   */\n      eq\n        /* \"#utility.yul\":470:533   */\n      tag_127\n      jumpi\n        /* \"#utility.yul\":529:530   */\n      0x00\n        /* \"#utility.yul\":526:527   */\n      dup1\n        /* \"#utility.yul\":519:531   */\n      revert\n        /* \"#utility.yul\":470:533   */\n    tag_127:\n        /* \"#utility.yul\":417:539   */\n      pop\n      jump\t// out\n        /* \"#utility.yul\":545:684   */\n    tag_86:\n        /* \"#utility.yul\":591:596   */\n      0x00\n        /* \"#utility.yul\":629:635   */\n      dup2\n        /* \"#utility.yul\":616:636   */\n      calldataload\n        /* \"#utility.yul\":607:636   */\n      swap1\n      pop\n        /* \"#utility.yul\":645:678   */\n      tag_129\n        /* \"#utility.yul\":672:677   */\n      dup2\n        /* \"#utility.yul\":645:678   */\n      tag_85\n      jump\t// in\n    tag_129:\n        /* \"#utility.yul\":545:684   */\n      swap3\n      swap2\n      pop\n      pop\n      jump\t// out\n        /* \"#utility.yul\":690:1019   */\n    tag_14:\n        /* \"#utility.yul\":749:755   */\n      0x00\n        /* \"#utility.yul\":798:800   */\n      0x20\n        /* \"#utility.yul\":786:795   */\n      dup3\n        /* \"#utility.yul\":777:784   */\n      dup5\n        /* \"#utility.yul\":773:796   */\n      sub\n        /* \"#utility.yul\":769:801   */\n      slt\n        /* \"#utility.yul\":766:885   */\n      iszero\n      tag_131\n      jumpi\n        /* \"#utility.yul\":804:883   */\n      tag_132\n      tag_82\n      jump\t// in\n    tag_132:\n        /* \"#utility.yul\":766:885   */\n    tag_131:\n        /* \"#utility.yul\":924:925   */\n      0x00\n        /* \"#utility.yul\":949:1002   */\n      tag_133\n        /* \"#utility.yul\":994:1001   */\n      dup5\n        /* \"#utility.yul\":985:991   */\n      dup3\n        /* \"#utility.yul\":974:983   */\n      dup6\n        /* \"#utility.yul\":970:992   */\n      add\n        /* \"#utility.yul\":949:1002   */\n      tag_86\n      jump\t// in\n    tag_133:\n        /* \"#utility.yul\":939:1002   */\n      swap2\n      pop\n        /* \"#utility.yul\":895:1012   */\n      pop\n        /* \"#utility.yul\":690:1019   */\n      swap3\n      swap2\n      pop\n      pop\n      jump\t// out\n        /* \"#utility.yul\":1025:1115   */\n    tag_87:\n        /* \"#utility.yul\":1059:1066   */\n      0x00\n        /* \"#utility.yul\":1102:1107   */\n      dup2\n        /* \"#utility.yul\":1095:1108   */\n      iszero\n        /* \"#utility.yul\":1088:1109   */\n      iszero\n        /* \"#utility.yul\":1077:1109   */\n      swap1\n      pop\n        /* \"#utility.yul\":1025:1115   */\n      swap2\n      swap1\n      pop\n      jump\t// out\n        /* \"#utility.yul\":1121:1230   */\n    tag_88:\n        /* \"#utility.yul\":1202:1223   */\n      tag_136\n        /* \"#utility.yul\":1217:1222   */\n      dup2\n        /* \"#utility.yul\":1202:1223   */\n      tag_87\n      jump\t// in\n    tag_136:\n        /* \"#utility.yul\":1197:1200   */\n      dup3\n        /* \"#utility.yul\":1190:1224   */\n      mstore\n        /* \"#utility.yul\":1121:1230   */\n      pop\n      pop\n      jump\t// out\n        /* \"#utility.yul\":1236:1446   */\n    tag_17:\n        /* \"#utility.yul\":1323:1327   */\n      0x00\n        /* \"#utility.yul\":1361:1363   */\n      0x20\n        /* \"#utility.yul\":1350:1359   */\n      dup3\n        /* \"#utility.yul\":1346:1364   */\n      add\n        /* \"#utility.yul\":1338:1364   */\n      swap1\n      pop\n        /* \"#utility.yul\":1374:1439   */\n      tag_138\n        /* \"#utility.yul\":1436:1437   */\n      0x00\n        /* \"#utility.yul\":1425:1434   */\n      dup4\n        /* \"#utility.yul\":1421:1438   */\n      add\n        /* \"#utility.yul\":1412:1418   */\n      dup5\n        /* \"#utility.yul\":1374:1439   */\n      tag_88\n      jump\t// in\n    tag_138:\n        /* \"#utility.yul\":1236:1446   */\n      swap3\n      swap2\n      pop\n      pop\n      jump\t// out\n        /* \"#utility.yul\":1452:1569   */\n    tag_89:\n        /* \"#utility.yul\":1561:1562   */\n      0x00\n        /* \"#utility.yul\":1558:1559   */\n      dup1\n        /* \"#utility.yul\":1551:1563   */\n      revert\n        /* \"#utility.yul\":1575:1692   */\n    tag_90:\n        /* \"#utility.yul\":1684:1685   */\n      0x00\n        /* \"#utility.yul\":1681:1682   */\n      dup1\n        /* \"#utility.yul\":1674:1686   */\n      revert\n        /* \"#utility.yul\":1698:1800   */\n    tag_91:\n        /* \"#utility.yul\":1739:1745   */\n      0x00\n        /* \"#utility.yul\":1790:1792   */\n      0x1f\n        /* \"#utility.yul\":1786:1793   */\n      not\n        /* \"#utility.yul\":1781:1783   */\n      0x1f\n        /* \"#utility.yul\":1774:1779   */\n      dup4\n        /* \"#utility.yul\":1770:1784   */\n      add\n        /* \"#utility.yul\":1766:1794   */\n      and\n        /* \"#utility.yul\":1756:1794   */\n      swap1\n      pop\n        /* \"#utility.yul\":1698:1800   */\n      swap2\n      swap1\n      pop\n      jump\t// out\n        /* \"#utility.yul\":1806:1986   */\n    tag_92:\n        /* \"#utility.yul\":1854:1931   */\n      0x4e487b7100000000000000000000000000000000000000000000000000000000\n        /* \"#utility.yul\":1851:1852   */\n      0x00\n        /* \"#utility.yul\":1844:1932   */\n      mstore\n        /* \"#utility.yul\":1951:1955   */\n      0x41\n        /* \"#utility.yul\":1948:1949   */\n      0x04\n        /* \"#utility.yul\":1941:1956   */\n      mstore\n        /* \"#utility.yul\":1975:1979   */\n      0x24\n        /* \"#utility.yul\":1972:1973   */\n      0x00\n        /* \"#utility.yul\":1965:1980   */\n      revert\n        /* \"#utility.yul\":1992:2273   */\n    tag_93:\n        /* \"#utility.yul\":2075:2102   */\n      tag_144\n        /* \"#utility.yul\":2097:2101   */\n      dup3\n        /* \"#utility.yul\":2075:2102   */\n      tag_91\n      jump\t// in\n    tag_144:\n        /* \"#utility.yul\":2067:2073   */\n      dup2\n        /* \"#utility.yul\":2063:2103   */\n      add\n        /* \"#utility.yul\":2205:2211   */\n      dup2\n        /* \"#utility.yul\":2193:2203   */\n      dup2\n        /* \"#utility.yul\":2190:2212   */\n      lt\n        /* \"#utility.yul\":2169:2187   */\n      0xffffffffffffffff\n        /* \"#utility.yul\":2157:2167   */\n      dup3\n        /* \"#utility.yul\":2154:2188   */\n      gt\n        /* \"#utility.yul\":2151:2213   */\n      or\n        /* \"#utility.yul\":2148:2236   */\n      iszero\n      tag_145\n      jumpi\n        /* \"#utility.yul\":2216:2234   */\n      tag_146\n      tag_92\n      jump\t// in\n    tag_146:\n        /* \"#utility.yul\":2148:2236   */\n    tag_145:\n        /* \"#utility.yul\":2256:2266   */\n      dup1\n        /* \"#utility.yul\":2252:2254   */\n      0x40\n        /* \"#utility.yul\":2245:2267   */\n      mstore\n        /* \"#utility.yul\":2035:2273   */\n      pop\n        /* \"#utility.yul\":1992:2273   */\n      pop\n      pop\n      jump\t// out\n        /* \"#utility.yul\":2279:2408   */\n    tag_94:\n        /* \"#utility.yul\":2313:2319   */\n      0x00\n        /* \"#utility.yul\":2340:2360   */\n      tag_148\n      tag_81\n      jump\t// in\n    tag_148:\n        /* \"#utility.yul\":2330:2360   */\n      swap1\n      pop\n        /* \"#utility.yul\":2369:2402   */\n      tag_149\n        /* \"#utility.yul\":2397:2401   */\n      dup3\n        /* \"#utility.yul\":2389:2395   */\n      dup3\n        /* \"#utility.yul\":2369:2402   */\n      tag_93\n      jump\t// in\n    tag_149:\n        /* \"#utility.yul\":2279:2408   */\n      swap2\n      swap1\n      pop\n      jump\t// out\n        /* \"#utility.yul\":2414:2722   */\n    tag_95:\n        /* \"#utility.yul\":2476:2480   */\n      0x00\n        /* \"#utility.yul\":2566:2584   */\n      0xffffffffffffffff\n        /* \"#utility.yul\":2558:2564   */\n      dup3\n        /* \"#utility.yul\":2555:2585   */\n      gt\n        /* \"#utility.yul\":2552:2608   */\n      iszero\n      tag_151\n      jumpi\n        /* \"#utility.yul\":2588:2606   */\n      tag_152\n      tag_92\n      jump\t// in\n    tag_152:\n        /* \"#utility.yul\":2552:2608   */\n    tag_151:\n        /* \"#utility.yul\":2626:2655   */\n      tag_153\n        /* \"#utility.yul\":2648:2654   */\n      dup3\n        /* \"#utility.yul\":2626:2655   */\n      tag_91\n      jump\t// in\n    tag_153:\n        /* \"#utility.yul\":2618:2655   */\n      swap1\n      pop\n        /* \"#utility.yul\":2710:2714   */\n      0x20\n        /* \"#utility.yul\":2704:2708   */\n      dup2\n        /* \"#utility.yul\":2700:2715   */\n      add\n        /* \"#utility.yul\":2692:2715   */\n      swap1\n      pop\n        /* \"#utility.yul\":2414:2722   */\n      swap2\n      swap1\n      pop\n      jump\t// out\n        /* \"#utility.yul\":2728:2876   */\n    tag_96:\n        /* \"#utility.yul\":2826:2832   */\n      dup3\n        /* \"#utility.yul\":2821:2824   */\n      dup2\n        /* \"#utility.yul\":2816:2819   */\n      dup4\n        /* \"#utility.yul\":2803:2833   */\n      calldatacopy\n        /* \"#utility.yul\":2867:2868   */\n      0x00\n        /* \"#utility.yul\":2858:2864   */\n      dup4\n        /* \"#utility.yul\":2853:2856   */\n      dup4\n        /* \"#utility.yul\":2849:2865   */\n      add\n        /* \"#utility.yul\":2842:2869   */\n      mstore\n        /* \"#utility.yul\":2728:2876   */\n      pop\n      pop\n      pop\n      jump\t// out\n        /* \"#utility.yul\":2882:3307   */\n    tag_97:\n        /* \"#utility.yul\":2960:2965   */\n      0x00\n        /* \"#utility.yul\":2985:3051   */\n      tag_156\n        /* \"#utility.yul\":3001:3050   */\n      tag_157\n        /* \"#utility.yul\":3043:3049   */\n      dup5\n        /* \"#utility.yul\":3001:3050   */\n      tag_95\n      jump\t// in\n    tag_157:\n        /* \"#utility.yul\":2985:3051   */\n      tag_94\n      jump\t// in\n    tag_156:\n        /* \"#utility.yul\":2976:3051   */\n      swap1\n      pop\n        /* \"#utility.yul\":3074:3080   */\n      dup3\n        /* \"#utility.yul\":3067:3072   */\n      dup2\n        /* \"#utility.yul\":3060:3081   */\n      mstore\n        /* \"#utility.yul\":3112:3116   */\n      0x20\n        /* \"#utility.yul\":3105:3110   */\n      dup2\n        /* \"#utility.yul\":3101:3117   */\n      add\n        /* \"#utility.yul\":3150:3153   */\n      dup5\n        /* \"#utility.yul\":3141:3147   */\n      dup5\n        /* \"#utility.yul\":3136:3139   */\n      dup5\n        /* \"#utility.yul\":3132:3148   */\n      add\n        /* \"#utility.yul\":3129:3154   */\n      gt\n        /* \"#utility.yul\":3126:3238   */\n      iszero\n      tag_158\n      jumpi\n        /* \"#utility.yul\":3157:3236   */\n      tag_159\n      tag_90\n      jump\t// in\n    tag_159:\n        /* \"#utility.yul\":3126:3238   */\n    tag_158:\n        /* \"#utility.yul\":3247:3301   */\n      tag_160\n        /* \"#utility.yul\":3294:3300   */\n      dup5\n        /* \"#utility.yul\":3289:3292   */\n      dup3\n        /* \"#utility.yul\":3284:3287   */\n      dup6\n        /* \"#utility.yul\":3247:3301   */\n      tag_96\n      jump\t// in\n    tag_160:\n        /* \"#utility.yul\":2966:3307   */\n      pop\n        /* \"#utility.yul\":2882:3307   */\n      swap4\n      swap3\n      pop\n      pop\n      pop\n      jump\t// out\n        /* \"#utility.yul\":3327:3667   */\n    tag_98:\n        /* \"#utility.yul\":3383:3388   */\n      0x00\n        /* \"#utility.yul\":3432:3435   */\n      dup3\n        /* \"#utility.yul\":3425:3429   */\n      0x1f\n        /* \"#utility.yul\":3417:3423   */\n      dup4\n        /* \"#utility.yul\":3413:3430   */\n      add\n        /* \"#utility.yul\":3409:3436   */\n      slt\n        /* \"#utility.yul\":3399:3521   */\n      tag_162\n      jumpi\n        /* \"#utility.yul\":3440:3519   */\n      tag_163\n      tag_89\n      jump\t// in\n    tag_163:\n        /* \"#utility.yul\":3399:3521   */\n    tag_162:\n        /* \"#utility.yul\":3557:3563   */\n      dup2\n        /* \"#utility.yul\":3544:3564   */\n      calldataload\n        /* \"#utility.yul\":3582:3661   */\n      tag_164\n        /* \"#utility.yul\":3657:3660   */\n      dup5\n        /* \"#utility.yul\":3649:3655   */\n      dup3\n        /* \"#utility.yul\":3642:3646   */\n      0x20\n        /* \"#utility.yul\":3634:3640   */\n      dup7\n        /* \"#utility.yul\":3630:3647   */\n      add\n        /* \"#utility.yul\":3582:3661   */\n      tag_97\n      jump\t// in\n    tag_164:\n        /* \"#utility.yul\":3573:3661   */\n      swap2\n      pop\n        /* \"#utility.yul\":3389:3667   */\n      pop\n        /* \"#utility.yul\":3327:3667   */\n      swap3\n      swap2\n      pop\n      pop\n      jump\t// out\n        /* \"#utility.yul\":3673:4652   */\n    tag_20:\n        /* \"#utility.yul\":3770:3776   */\n      0x00\n        /* \"#utility.yul\":3778:3784   */\n      dup1\n        /* \"#utility.yul\":3786:3792   */\n      0x00\n        /* \"#utility.yul\":3835:3837   */\n      0x60\n        /* \"#utility.yul\":3823:3832   */\n      dup5\n        /* \"#utility.yul\":3814:3821   */\n      dup7\n        /* \"#utility.yul\":3810:3833   */\n      sub\n        /* \"#utility.yul\":3806:3838   */\n      slt\n        /* \"#utility.yul\":3803:3922   */\n      iszero\n      tag_166\n      jumpi\n        /* \"#utility.yul\":3841:3920   */\n      tag_167\n      tag_82\n      jump\t// in\n    tag_167:\n        /* \"#utility.yul\":3803:3922   */\n    tag_166:\n        /* \"#utility.yul\":3961:3962   */\n      0x00\n        /* \"#utility.yul\":3986:4039   */\n      tag_168\n        /* \"#utility.yul\":4031:4038   */\n      dup7\n        /* \"#utility.yul\":4022:4028   */\n      dup3\n        /* \"#utility.yul\":4011:4020   */\n      dup8\n        /* \"#utility.yul\":4007:4029   */\n      add\n        /* \"#utility.yul\":3986:4039   */\n      tag_86\n      jump\t// in\n    tag_168:\n        /* \"#utility.yul\":3976:4039   */\n      swap4\n      pop\n        /* \"#utility.yul\":3932:4049   */\n      pop\n        /* \"#utility.yul\":4116:4118   */\n      0x20\n        /* \"#utility.yul\":4105:4114   */\n      dup5\n        /* \"#utility.yul\":4101:4119   */\n      add\n        /* \"#utility.yul\":4088:4120   */\n      calldataload\n        /* \"#utility.yul\":4147:4165   */\n      0xffffffffffffffff\n        /* \"#utility.yul\":4139:4145   */\n      dup2\n        /* \"#utility.yul\":4136:4166   */\n      gt\n        /* \"#utility.yul\":4133:4250   */\n      iszero\n      tag_169\n      jumpi\n        /* \"#utility.yul\":4169:4248   */\n      tag_170\n      tag_83\n      jump\t// in\n    tag_170:\n        /* \"#utility.yul\":4133:4250   */\n    tag_169:\n        /* \"#utility.yul\":4274:4337   */\n      tag_171\n        /* \"#utility.yul\":4329:4336   */\n      dup7\n        /* \"#utility.yul\":4320:4326   */\n      dup3\n        /* \"#utility.yul\":4309:4318   */\n      dup8\n        /* \"#utility.yul\":4305:4327   */\n      add\n        /* \"#utility.yul\":4274:4337   */\n      tag_98\n      jump\t// in\n    tag_171:\n        /* \"#utility.yul\":4264:4337   */\n      swap3\n      pop\n        /* \"#utility.yul\":4059:4347   */\n      pop\n        /* \"#utility.yul\":4414:4416   */\n      0x40\n        /* \"#utility.yul\":4403:4412   */\n      dup5\n        /* \"#utility.yul\":4399:4417   */\n      add\n        /* \"#utility.yul\":4386:4418   */\n      calldataload\n        /* \"#utility.yul\":4445:4463   */\n      0xffffffffffffffff\n        /* \"#utility.yul\":4437:4443   */\n      dup2\n        /* \"#utility.yul\":4434:4464   */\n      gt\n        /* \"#utility.yul\":4431:4548   */\n      iszero\n      tag_172\n      jumpi\n        /* \"#utility.yul\":4467:4546   */\n      tag_173\n      tag_83\n      jump\t// in\n    tag_173:\n        /* \"#utility.yul\":4431:4548   */\n    tag_172:\n        /* \"#utility.yul\":4572:4635   */\n      tag_174\n        /* \"#utility.yul\":4627:4634   */\n      dup7\n        /* \"#utility.yul\":4618:4624   */\n      dup3\n        /* \"#utility.yul\":4607:4616   */\n      dup8\n        /* \"#utility.yul\":4603:4625   */\n      add\n        /* \"#utility.yul\":4572:4635   */\n      tag_98\n      jump\t// in\n    tag_174:\n        /* \"#utility.yul\":4562:4635   */\n      swap2\n      pop\n        /* \"#utility.yul\":4357:4645   */\n      pop\n        /* \"#utility.yul\":3673:4652   */\n      swap3\n      pop\n      swap3\n      pop\n      swap3\n      jump\t// out\n        /* \"#utility.yul\":4658:5167   */\n    tag_30:\n        /* \"#utility.yul\":4727:4733   */\n      0x00\n        /* \"#utility.yul\":4776:4778   */\n      0x20\n        /* \"#utility.yul\":4764:4773   */\n      dup3\n        /* \"#utility.yul\":4755:4762   */\n      dup5\n        /* \"#utility.yul\":4751:4774   */\n      sub\n        /* \"#utility.yul\":4747:4779   */\n      slt\n        /* \"#utility.yul\":4744:4863   */\n      iszero\n      tag_176\n      jumpi\n        /* \"#utility.yul\":4782:4861   */\n      tag_177\n      tag_82\n      jump\t// in\n    tag_177:\n        /* \"#utility.yul\":4744:4863   */\n    tag_176:\n        /* \"#utility.yul\":4930:4931   */\n      0x00\n        /* \"#utility.yul\":4919:4928   */\n      dup3\n        /* \"#utility.yul\":4915:4932   */\n      add\n        /* \"#utility.yul\":4902:4933   */\n      calldataload\n        /* \"#utility.yul\":4960:4978   */\n      0xffffffffffffffff\n        /* \"#utility.yul\":4952:4958   */\n      dup2\n        /* \"#utility.yul\":4949:4979   */\n      gt\n        /* \"#utility.yul\":4946:5063   */\n      iszero\n      tag_178\n      jumpi\n        /* \"#utility.yul\":4982:5061   */\n      tag_179\n      tag_83\n      jump\t// in\n    tag_179:\n        /* \"#utility.yul\":4946:5063   */\n    tag_178:\n        /* \"#utility.yul\":5087:5150   */\n      tag_180\n        /* \"#utility.yul\":5142:5149   */\n      dup5\n        /* \"#utility.yul\":5133:5139   */\n      dup3\n        /* \"#utility.yul\":5122:5131   */\n      dup6\n        /* \"#utility.yul\":5118:5140   */\n      add\n        /* \"#utility.yul\":5087:5150   */\n      tag_98\n      jump\t// in\n    tag_180:\n        /* \"#utility.yul\":5077:5150   */\n      swap2\n      pop\n        /* \"#utility.yul\":4873:5160   */\n      pop\n        /* \"#utility.yul\":4658:5167   */\n      swap3\n      swap2\n      pop\n      pop\n      jump\t// out\n        /* \"#utility.yul\":5173:5291   */\n    tag_99:\n        /* \"#utility.yul\":5260:5284   */\n      tag_182\n        /* \"#utility.yul\":5278:5283   */\n      dup2\n        /* \"#utility.yul\":5260:5284   */\n      tag_84\n      jump\t// in\n    tag_182:\n        /* \"#utility.yul\":5255:5258   */\n      dup3\n        /* \"#utility.yul\":5248:5285   */\n      mstore\n        /* \"#utility.yul\":5173:5291   */\n      pop\n      pop\n      jump\t// out\n        /* \"#utility.yul\":5297:5519   */\n    tag_33:\n        /* \"#utility.yul\":5390:5394   */\n      0x00\n        /* \"#utility.yul\":5428:5430   */\n      0x20\n        /* \"#utility.yul\":5417:5426   */\n      dup3\n        /* \"#utility.yul\":5413:5431   */\n      add\n        /* \"#utility.yul\":5405:5431   */\n      swap1\n      pop\n        /* \"#utility.yul\":5441:5512   */\n      tag_184\n        /* \"#utility.yul\":5509:5510   */\n      0x00\n        /* \"#utility.yul\":5498:5507   */\n      dup4\n        /* \"#utility.yul\":5494:5511   */\n      add\n        /* \"#utility.yul\":5485:5491   */\n      dup5\n        /* \"#utility.yul\":5441:5512   */\n      tag_99\n      jump\t// in\n    tag_184:\n        /* \"#utility.yul\":5297:5519   */\n      swap3\n      swap2\n      pop\n      pop\n      jump\t// out\n        /* \"#utility.yul\":5525:5624   */\n    tag_100:\n        /* \"#utility.yul\":5577:5583   */\n      0x00\n        /* \"#utility.yul\":5611:5616   */\n      dup2\n        /* \"#utility.yul\":5605:5617   */\n      mload\n        /* \"#utility.yul\":5595:5617   */\n      swap1\n      pop\n        /* \"#utility.yul\":5525:5624   */\n      swap2\n      swap1\n      pop\n      jump\t// out\n        /* \"#utility.yul\":5630:5799   */\n    tag_101:\n        /* \"#utility.yul\":5714:5725   */\n      0x00\n        /* \"#utility.yul\":5748:5754   */\n      dup3\n        /* \"#utility.yul\":5743:5746   */\n      dup3\n        /* \"#utility.yul\":5736:5755   */\n      mstore\n        /* \"#utility.yul\":5788:5792   */\n      0x20\n        /* \"#utility.yul\":5783:5786   */\n      dup3\n        /* \"#utility.yul\":5779:5793   */\n      add\n        /* \"#utility.yul\":5764:5793   */\n      swap1\n      pop\n        /* \"#utility.yul\":5630:5799   */\n      swap3\n      swap2\n      pop\n      pop\n      jump\t// out\n        /* \"#utility.yul\":5805:5944   */\n    tag_102:\n        /* \"#utility.yul\":5894:5900   */\n      dup3\n        /* \"#utility.yul\":5889:5892   */\n      dup2\n        /* \"#utility.yul\":5884:5887   */\n      dup4\n        /* \"#utility.yul\":5878:5901   */\n      mcopy\n        /* \"#utility.yul\":5935:5936   */\n      0x00\n        /* \"#utility.yul\":5926:5932   */\n      dup4\n        /* \"#utility.yul\":5921:5924   */\n      dup4\n        /* \"#utility.yul\":5917:5933   */\n      add\n        /* \"#utility.yul\":5910:5937   */\n      mstore\n        /* \"#utility.yul\":5805:5944   */\n      pop\n      pop\n      pop\n      jump\t// out\n        /* \"#utility.yul\":5950:6327   */\n    tag_103:\n        /* \"#utility.yul\":6038:6041   */\n      0x00\n        /* \"#utility.yul\":6066:6105   */\n      tag_189\n        /* \"#utility.yul\":6099:6104   */\n      dup3\n        /* \"#utility.yul\":6066:6105   */\n      tag_100\n      jump\t// in\n    tag_189:\n        /* \"#utility.yul\":6121:6192   */\n      tag_190\n        /* \"#utility.yul\":6185:6191   */\n      dup2\n        /* \"#utility.yul\":6180:6183   */\n      dup6\n        /* \"#utility.yul\":6121:6192   */\n      tag_101\n      jump\t// in\n    tag_190:\n        /* \"#utility.yul\":6114:6192   */\n      swap4\n      pop\n        /* \"#utility.yul\":6201:6266   */\n      tag_191\n        /* \"#utility.yul\":6259:6265   */\n      dup2\n        /* \"#utility.yul\":6254:6257   */\n      dup6\n        /* \"#utility.yul\":6247:6251   */\n      0x20\n        /* \"#utility.yul\":6240:6245   */\n      dup7\n        /* \"#utility.yul\":6236:6252   */\n      add\n        /* \"#utility.yul\":6201:6266   */\n      tag_102\n      jump\t// in\n    tag_191:\n        /* \"#utility.yul\":6291:6320   */\n      tag_192\n        /* \"#utility.yul\":6313:6319   */\n      dup2\n        /* \"#utility.yul\":6291:6320   */\n      tag_91\n      jump\t// in\n    tag_192:\n        /* \"#utility.yul\":6286:6289   */\n      dup5\n        /* \"#utility.yul\":6282:6321   */\n      add\n        /* \"#utility.yul\":6275:6321   */\n      swap2\n      pop\n        /* \"#utility.yul\":6042:6327   */\n      pop\n        /* \"#utility.yul\":5950:6327   */\n      swap3\n      swap2\n      pop\n      pop\n      jump\t// out\n        /* \"#utility.yul\":6333:6957   */\n    tag_38:\n        /* \"#utility.yul\":6522:6526   */\n      0x00\n        /* \"#utility.yul\":6560:6562   */\n      0x60\n        /* \"#utility.yul\":6549:6558   */\n      dup3\n        /* \"#utility.yul\":6545:6563   */\n      add\n        /* \"#utility.yul\":6537:6563   */\n      swap1\n      pop\n        /* \"#utility.yul\":6609:6618   */\n      dup2\n        /* \"#utility.yul\":6603:6607   */\n      dup2\n        /* \"#utility.yul\":6599:6619   */\n      sub\n        /* \"#utility.yul\":6595:6596   */\n      0x00\n        /* \"#utility.yul\":6584:6593   */\n      dup4\n        /* \"#utility.yul\":6580:6597   */\n      add\n        /* \"#utility.yul\":6573:6620   */\n      mstore\n        /* \"#utility.yul\":6637:6715   */\n      tag_194\n        /* \"#utility.yul\":6710:6714   */\n      dup2\n        /* \"#utility.yul\":6701:6707   */\n      dup7\n        /* \"#utility.yul\":6637:6715   */\n      tag_103\n      jump\t// in\n    tag_194:\n        /* \"#utility.yul\":6629:6715   */\n      swap1\n      pop\n        /* \"#utility.yul\":6762:6771   */\n      dup2\n        /* \"#utility.yul\":6756:6760   */\n      dup2\n        /* \"#utility.yul\":6752:6772   */\n      sub\n        /* \"#utility.yul\":6747:6749   */\n      0x20\n        /* \"#utility.yul\":6736:6745   */\n      dup4\n        /* \"#utility.yul\":6732:6750   */\n      add\n        /* \"#utility.yul\":6725:6773   */\n      mstore\n        /* \"#utility.yul\":6790:6868   */\n      tag_195\n        /* \"#utility.yul\":6863:6867   */\n      dup2\n        /* \"#utility.yul\":6854:6860   */\n      dup6\n        /* \"#utility.yul\":6790:6868   */\n      tag_103\n      jump\t// in\n    tag_195:\n        /* \"#utility.yul\":6782:6868   */\n      swap1\n      pop\n        /* \"#utility.yul\":6878:6950   */\n      tag_196\n        /* \"#utility.yul\":6946:6948   */\n      0x40\n        /* \"#utility.yul\":6935:6944   */\n      dup4\n        /* \"#utility.yul\":6931:6949   */\n      add\n        /* \"#utility.yul\":6922:6928   */\n      dup5\n        /* \"#utility.yul\":6878:6950   */\n      tag_99\n      jump\t// in\n    tag_196:\n        /* \"#utility.yul\":6333:6957   */\n      swap5\n      swap4\n      pop\n      pop\n      pop\n      pop\n      jump\t// out\n        /* \"#utility.yul\":6963:7143   */\n    tag_104:\n        /* \"#utility.yul\":7011:7088   */\n      0x4e487b7100000000000000000000000000000000000000000000000000000000\n        /* \"#utility.yul\":7008:7009   */\n      0x00\n        /* \"#utility.yul\":7001:7089   */\n      mstore\n        /* \"#utility.yul\":7108:7112   */\n      0x22\n        /* \"#utility.yul\":7105:7106   */\n      0x04\n        /* \"#utility.yul\":7098:7113   */\n      mstore\n        /* \"#utility.yul\":7132:7136   */\n      0x24\n        /* \"#utility.yul\":7129:7130   */\n      0x00\n        /* \"#utility.yul\":7122:7137   */\n      revert\n        /* \"#utility.yul\":7149:7469   */\n    tag_63:\n        /* \"#utility.yul\":7193:7199   */\n      0x00\n        /* \"#utility.yul\":7230:7231   */\n      0x02\n        /* \"#utility.yul\":7224:7228   */\n      dup3\n        /* \"#utility.yul\":7220:7232   */\n      div\n        /* \"#utility.yul\":7210:7232   */\n      swap1\n      pop\n        /* \"#utility.yul\":7277:7278   */\n      0x01\n        /* \"#utility.yul\":7271:7275   */\n      dup3\n        /* \"#utility.yul\":7267:7279   */\n      and\n        /* \"#utility.yul\":7298:7316   */\n      dup1\n        /* \"#utility.yul\":7288:7369   */\n      tag_199\n      jumpi\n        /* \"#utility.yul\":7354:7358   */\n      0x7f\n        /* \"#utility.yul\":7346:7352   */\n      dup3\n        /* \"#utility.yul\":7342:7359   */\n      and\n        /* \"#utility.yul\":7332:7359   */\n      swap2\n      pop\n        /* \"#utility.yul\":7288:7369   */\n    tag_199:\n        /* \"#utility.yul\":7416:7418   */\n      0x20\n        /* \"#utility.yul\":7408:7414   */\n      dup3\n        /* \"#utility.yul\":7405:7419   */\n      lt\n        /* \"#utility.yul\":7385:7403   */\n      dup2\n        /* \"#utility.yul\":7382:7420   */\n      sub\n        /* \"#utility.yul\":7379:7463   */\n      tag_200\n      jumpi\n        /* \"#utility.yul\":7435:7453   */\n      tag_201\n      tag_104\n      jump\t// in\n    tag_201:\n        /* \"#utility.yul\":7379:7463   */\n    tag_200:\n        /* \"#utility.yul\":7200:7469   */\n      pop\n        /* \"#utility.yul\":7149:7469   */\n      swap2\n      swap1\n      pop\n      jump\t// out\n        /* \"#utility.yul\":7475:7616   */\n    tag_105:\n        /* \"#utility.yul\":7524:7528   */\n      0x00\n        /* \"#utility.yul\":7547:7550   */\n      dup2\n        /* \"#utility.yul\":7539:7550   */\n      swap1\n      pop\n        /* \"#utility.yul\":7570:7573   */\n      dup2\n        /* \"#utility.yul\":7567:7568   */\n      0x00\n        /* \"#utility.yul\":7560:7574   */\n      mstore\n        /* \"#utility.yul\":7604:7608   */\n      0x20\n        /* \"#utility.yul\":7601:7602   */\n      0x00\n        /* \"#utility.yul\":7591:7609   */\n      keccak256\n        /* \"#utility.yul\":7583:7609   */\n      swap1\n      pop\n        /* \"#utility.yul\":7475:7616   */\n      swap2\n      swap1\n      pop\n      jump\t// out\n        /* \"#utility.yul\":7622:7715   */\n    tag_106:\n        /* \"#utility.yul\":7659:7665   */\n      0x00\n        /* \"#utility.yul\":7706:7708   */\n      0x20\n        /* \"#utility.yul\":7701:7703   */\n      0x1f\n        /* \"#utility.yul\":7694:7699   */\n      dup4\n        /* \"#utility.yul\":7690:7704   */\n      add\n        /* \"#utility.yul\":7686:7709   */\n      div\n        /* \"#utility.yul\":7676:7709   */\n      swap1\n      pop\n        /* \"#utility.yul\":7622:7715   */\n      swap2\n      swap1\n      pop\n      jump\t// out\n        /* \"#utility.yul\":7721:7828   */\n    tag_107:\n        /* \"#utility.yul\":7765:7773   */\n      0x00\n        /* \"#utility.yul\":7815:7820   */\n      dup3\n        /* \"#utility.yul\":7809:7813   */\n      dup3\n        /* \"#utility.yul\":7805:7821   */\n      shl\n        /* \"#utility.yul\":7784:7821   */\n      swap1\n      pop\n        /* \"#utility.yul\":7721:7828   */\n      swap3\n      swap2\n      pop\n      pop\n      jump\t// out\n        /* \"#utility.yul\":7834:8227   */\n    tag_108:\n        /* \"#utility.yul\":7903:7909   */\n      0x00\n        /* \"#utility.yul\":7953:7954   */\n      0x08\n        /* \"#utility.yul\":7941:7951   */\n      dup4\n        /* \"#utility.yul\":7937:7955   */\n      mul\n        /* \"#utility.yul\":7976:8073   */\n      tag_206\n        /* \"#utility.yul\":8006:8072   */\n      0xffffffffffffffffffffffffffffffffffffffffffffffffffffffffffffffff\n        /* \"#utility.yul\":7995:8004   */\n      dup3\n        /* \"#utility.yul\":7976:8073   */\n      tag_107\n      jump\t// in\n    tag_206:\n        /* \"#utility.yul\":8094:8133   */\n      tag_207\n        /* \"#utility.yul\":8124:8132   */\n      dup7\n        /* \"#utility.yul\":8113:8122   */\n      dup4\n        /* \"#utility.yul\":8094:8133   */\n      tag_107\n      jump\t// in\n    tag_207:\n        /* \"#utility.yul\":8082:8133   */\n      swap6\n      pop\n        /* \"#utility.yul\":8166:8170   */\n      dup1\n        /* \"#utility.yul\":8162:8171   */\n      not\n        /* \"#utility.yul\":8155:8160   */\n      dup5\n        /* \"#utility.yul\":8151:8172   */\n      and\n        /* \"#utility.yul\":8142:8172   */\n      swap4\n      pop\n        /* \"#utility.yul\":8215:8219   */\n      dup1\n        /* \"#utility.yul\":8205:8213   */\n      dup7\n        /* \"#utility.yul\":8201:8220   */\n      and\n        /* \"#utility.yul\":8194:8199   */\n      dup5\n        /* \"#utility.yul\":8191:8221   */\n      or\n        /* \"#utility.yul\":8181:8221   */\n      swap3\n      pop\n        /* \"#utility.yul\":7910:8227   */\n      pop\n      pop\n        /* \"#utility.yul\":7834:8227   */\n      swap4\n      swap3\n      pop\n      pop\n      pop\n      jump\t// out\n        /* \"#utility.yul\":8233:8293   */\n    tag_109:\n        /* \"#utility.yul\":8261:8264   */\n      0x00\n        /* \"#utility.yul\":8282:8287   */\n      dup2\n        /* \"#utility.yul\":8275:8287   */\n      swap1\n      pop\n        /* \"#utility.yul\":8233:8293   */\n      swap2\n      swap1\n      pop\n      jump\t// out\n        /* \"#utility.yul\":8299:8441   */\n    tag_110:\n        /* \"#utility.yul\":8349:8358   */\n      0x00\n        /* \"#utility.yul\":8382:8435   */\n      tag_210\n        /* \"#utility.yul\":8400:8434   */\n      tag_211\n        /* \"#utility.yul\":8409:8433   */\n      tag_212\n        /* \"#utility.yul\":8427:8432   */\n      dup5\n        /* \"#utility.yul\":8409:8433   */\n      tag_84\n      jump\t// in\n    tag_212:\n        /* \"#utility.yul\":8400:8434   */\n      tag_109\n      jump\t// in\n    tag_211:\n        /* \"#utility.yul\":8382:8435   */\n      tag_84\n      jump\t// in\n    tag_210:\n        /* \"#utility.yul\":8369:8435   */\n      swap1\n      pop\n        /* \"#utility.yul\":8299:8441   */\n      swap2\n      swap1\n      pop\n      jump\t// out\n        /* \"#utility.yul\":8447:8522   */\n    tag_111:\n        /* \"#utility.yul\":8490:8493   */\n      0x00\n        /* \"#utility.yul\":8511:8516   */\n      dup2\n        /* \"#utility.yul\":8504:8516   */\n      swap1\n      pop\n        /* \"#utility.yul\":8447:8522   */\n      swap2\n      swap1\n      pop\n      jump\t// out\n        /* \"#utility.yul\":8528:8797   */\n    tag_112:\n        /* \"#utility.yul\":8638:8677   */\n      tag_215\n        /* \"#utility.yul\":8669:8676   */\n      dup4\n        /* \"#utility.yul\":8638:8677   */\n      tag_110\n      jump\t// in\n    tag_215:\n        /* \"#utility.yul\":8699:8790   */\n      tag_216\n        /* \"#utility.yul\":8748:8789   */\n      tag_217\n        /* \"#utility.yul\":8772:8788   */\n      dup3\n        /* \"#utility.yul\":8748:8789   */\n      tag_111\n      jump\t// in\n    tag_217:\n        /* \"#utility.yul\":8740:8746   */\n      dup5\n        /* \"#utility.yul\":8733:8737   */\n      dup5\n        /* \"#utility.yul\":8727:8738   */\n      sload\n        /* \"#utility.yul\":8699:8790   */\n      tag_108\n      jump\t// in\n    tag_216:\n        /* \"#utility.yul\":8693:8697   */\n      dup3\n        /* \"#utility.yul\":8686:8791   */\n      sstore\n        /* \"#utility.yul\":8604:8797   */\n      pop\n        /* \"#utility.yul\":8528:8797   */\n      pop\n      pop\n      pop\n      jump\t// out\n        /* \"#utility.yul\":8803:8876   */\n    tag_113:\n        /* \"#utility.yul\":8848:8851   */\n      0x00\n        /* \"#utility.yul\":8803:8876   */\n      swap1\n      jump\t// out\n        /* \"#utility.yul\":8882:9071   */\n    tag_114:\n        /* \"#utility.yul\":8959:8991   */\n      tag_220\n      tag_113\n      jump\t// in\n    tag_220:\n        /* \"#utility.yul\":9000:9065   */\n      tag_221\n        /* \"#utility.yul\":9058:9064   */\n      dup2\n        /* \"#utility.yul\":9050:9056   */\n      dup5\n        /* \"#utility.yul\":9044:9048   */\n      dup5\n        /* \"#utility.yul\":9000:9065   */\n      tag_112\n      jump\t// in\n    tag_221:\n        /* \"#utility.yul\":8935:9071   */\n      pop\n        /* \"#utility.yul\":8882:9071   */\n      pop\n      pop\n      jump\t// out\n        /* \"#utility.yul\":9077:9263   */\n    tag_115:\n        /* \"#utility.yul\":9137:9257   */\n    tag_223:\n        /* \"#utility.yul\":9154:9157   */\n      dup2\n        /* \"#utility.yul\":9147:9152   */\n      dup2\n        /* \"#utility.yul\":9144:9158   */\n      lt\n        /* \"#utility.yul\":9137:9257   */\n      iszero\n      tag_225\n      jumpi\n        /* \"#utility.yul\":9208:9247   */\n      tag_226\n        /* \"#utility.yul\":9245:9246   */\n      0x00\n        /* \"#utility.yul\":9238:9243   */\n      dup3\n        /* \"#utility.yul\":9208:9247   */\n      tag_114\n      jump\t// in\n    tag_226:\n        /* \"#utility.yul\":9181:9182   */\n      0x01\n        /* \"#utility.yul\":9174:9179   */\n      dup2\n        /* \"#utility.yul\":9170:9183   */\n      add\n        /* \"#utility.yul\":9161:9183   */\n      swap1\n      pop\n        /* \"#utility.yul\":9137:9257   */\n      jump(tag_223)\n    tag_225:\n        /* \"#utility.yul\":9077:9263   */\n      pop\n      pop\n      jump\t// out\n        /* \"#utility.yul\":9269:9812   */\n    tag_116:\n        /* \"#utility.yul\":9370:9372   */\n      0x1f\n        /* \"#utility.yul\":9365:9368   */\n      dup3\n        /* \"#utility.yul\":9362:9373   */\n      gt\n        /* \"#utility.yul\":9359:9805   */\n      iszero\n      tag_228\n      jumpi\n        /* \"#utility.yul\":9404:9442   */\n      tag_229\n        /* \"#utility.yul\":9436:9441   */\n      dup2\n        /* \"#utility.yul\":9404:9442   */\n      tag_105\n      jump\t// in\n    tag_229:\n        /* \"#utility.yul\":9488:9517   */\n      tag_230\n        /* \"#utility.yul\":9506:9516   */\n      dup5\n        /* \"#utility.yul\":9488:9517   */\n      tag_106\n      jump\t// in\n    tag_230:\n        /* \"#utility.yul\":9478:9486   */\n      dup2\n        /* \"#utility.yul\":9474:9518   */\n      add\n        /* \"#utility.yul\":9671:9673   */\n      0x20\n        /* \"#utility.yul\":9659:9669   */\n      dup6\n        /* \"#utility.yul\":9656:9674   */\n      lt\n        /* \"#utility.yul\":9653:9702   */\n      iszero\n      tag_231\n      jumpi\n        /* \"#utility.yul\":9692:9700   */\n      dup2\n        /* \"#utility.yul\":9677:9700   */\n      swap1\n      pop\n        /* \"#utility.yul\":9653:9702   */\n    tag_231:\n        /* \"#utility.yul\":9715:9795   */\n      tag_232\n        /* \"#utility.yul\":9771:9793   */\n      tag_233\n        /* \"#utility.yul\":9789:9792   */\n      dup6\n        /* \"#utility.yul\":9771:9793   */\n      tag_106\n      jump\t// in\n    tag_233:\n        /* \"#utility.yul\":9761:9769   */\n      dup4\n        /* \"#utility.yul\":9757:9794   */\n      add\n        /* \"#utility.yul\":9744:9755   */\n      dup3\n        /* \"#utility.yul\":9715:9795   */\n      tag_115\n      jump\t// in\n    tag_232:\n        /* \"#utility.yul\":9374:9805   */\n      pop\n      pop\n        /* \"#utility.yul\":9359:9805   */\n    tag_228:\n        /* \"#utility.yul\":9269:9812   */\n      pop\n      pop\n      pop\n      jump\t// out\n        /* \"#utility.yul\":9818:9935   */\n    tag_117:\n        /* \"#utility.yul\":9872:9880   */\n      0x00\n        /* \"#utility.yul\":9922:9927   */\n      dup3\n        /* \"#utility.yul\":9916:9920   */\n      dup3\n        /* \"#utility.yul\":9912:9928   */\n      shr\n        /* \"#utility.yul\":9891:9928   */\n      swap1\n      pop\n        /* \"#utility.yul\":9818:9935   */\n      swap3\n      swap2\n      pop\n      pop\n      jump\t// out\n        /* \"#utility.yul\":9941:10110   */\n    tag_118:\n        /* \"#utility.yul\":9985:9991   */\n      0x00\n        /* \"#utility.yul\":10018:10069   */\n      tag_236\n        /* \"#utility.yul\":10066:10067   */\n      0x00\n        /* \"#utility.yul\":10062:10068   */\n      not\n        /* \"#utility.yul\":10054:10059   */\n      dup5\n        /* \"#utility.yul\":10051:10052   */\n      0x08\n        /* \"#utility.yul\":10047:10060   */\n      mul\n        /* \"#utility.yul\":10018:10069   */\n      tag_117\n      jump\t// in\n    tag_236:\n        /* \"#utility.yul\":10014:10070   */\n      not\n        /* \"#utility.yul\":10099:10103   */\n      dup1\n        /* \"#utility.yul\":10093:10097   */\n      dup4\n        /* \"#utility.yul\":10089:10104   */\n      and\n        /* \"#utility.yul\":10079:10104   */\n      swap2\n      pop\n        /* \"#utility.yul\":9992:10110   */\n      pop\n        /* \"#utility.yul\":9941:10110   */\n      swap3\n      swap2\n      pop\n      pop\n      jump\t// out\n        /* \"#utility.yul\":10115:10410   */\n    tag_119:\n        /* \"#utility.yul\":10191:10195   */\n      0x00\n        /* \"#utility.yul\":10337:10366   */\n      tag_238\n        /* \"#utility.yul\":10362:10365   */\n      dup4\n        /* \"#utility.yul\":10356:10360   */\n      dup4\n        /* \"#utility.yul\":10337:10366   */\n      tag_118\n      jump\t// in\n    tag_238:\n        /* \"#utility.yul\":10329:10366   */\n      swap2\n      pop\n        /* \"#utility.yul\":10399:10402   */\n      dup3\n        /* \"#utility.yul\":10396:10397   */\n      0x02\n        /* \"#utility.yul\":10392:10403   */\n      mul\n        /* \"#utility.yul\":10386:10390   */\n      dup3\n        /* \"#utility.yul\":10383:10404   */\n      or\n        /* \"#utility.yul\":10375:10404   */\n      swap1\n      pop\n        /* \"#utility.yul\":10115:10410   */\n      swap3\n      swap2\n      pop\n      pop\n      jump\t// out\n        /* \"#utility.yul\":10415:11810   */\n    tag_50:\n        /* \"#utility.yul\":10532:10569   */\n      tag_240\n        /* \"#utility.yul\":10565:10568   */\n      dup3\n        /* \"#utility.yul\":10532:10569   */\n      tag_100\n      jump\t// in\n    tag_240:\n        /* \"#utility.yul\":10634:10652   */\n      0xffffffffffffffff\n        /* \"#utility.yul\":10626:10632   */\n      dup2\n        /* \"#utility.yul\":10623:10653   */\n      gt\n        /* \"#utility.yul\":10620:10676   */\n      iszero\n      tag_241\n      jumpi\n        /* \"#utility.yul\":10656:10674   */\n      tag_242\n      tag_92\n      jump\t// in\n    tag_242:\n        /* \"#utility.yul\":10620:10676   */\n    tag_241:\n        /* \"#utility.yul\":10700:10738   */\n      tag_243\n        /* \"#utility.yul\":10732:10736   */\n      dup3\n        /* \"#utility.yul\":10726:10737   */\n      sload\n        /* \"#utility.yul\":10700:10738   */\n      tag_63\n      jump\t// in\n    tag_243:\n        /* \"#utility.yul\":10785:10852   */\n      tag_244\n        /* \"#utility.yul\":10845:10851   */\n      dup3\n        /* \"#utility.yul\":10837:10843   */\n      dup3\n        /* \"#utility.yul\":10831:10835   */\n      dup6\n        /* \"#utility.yul\":10785:10852   */\n      tag_116\n      jump\t// in\n    tag_244:\n        /* \"#utility.yul\":10879:10880   */\n      0x00\n        /* \"#utility.yul\":10903:10907   */\n      0x20\n        /* \"#utility.yul\":10890:10907   */\n      swap1\n      pop\n        /* \"#utility.yul\":10935:10937   */\n      0x1f\n        /* \"#utility.yul\":10927:10933   */\n      dup4\n        /* \"#utility.yul\":10924:10938   */\n      gt\n        /* \"#utility.yul\":10952:10953   */\n      0x01\n        /* \"#utility.yul\":10947:11565   */\n      dup2\n      eq\n      tag_246\n      jumpi\n        /* \"#utility.yul\":11609:11610   */\n      0x00\n        /* \"#utility.yul\":11626:11632   */\n      dup5\n        /* \"#utility.yul\":11623:11700   */\n      iszero\n      tag_247\n      jumpi\n        /* \"#utility.yul\":11675:11684   */\n      dup3\n        /* \"#utility.yul\":11670:11673   */\n      dup8\n        /* \"#utility.yul\":11666:11685   */\n      add\n        /* \"#utility.yul\":11660:11686   */\n      mload\n        /* \"#utility.yul\":11651:11686   */\n      swap1\n      pop\n        /* \"#utility.yul\":11623:11700   */\n    tag_247:\n        /* \"#utility.yul\":11726:11793   */\n      tag_248\n        /* \"#utility.yul\":11786:11792   */\n      dup6\n        /* \"#utility.yul\":11779:11784   */\n      dup3\n        /* \"#utility.yul\":11726:11793   */\n      tag_119\n      jump\t// in\n    tag_248:\n        /* \"#utility.yul\":11720:11724   */\n      dup7\n        /* \"#utility.yul\":11713:11794   */\n      sstore\n        /* \"#utility.yul\":11582:11804   */\n      pop\n        /* \"#utility.yul\":10917:11804   */\n      jump(tag_245)\n        /* \"#utility.yul\":10947:11565   */\n    tag_246:\n        /* \"#utility.yul\":10999:11003   */\n      0x1f\n        /* \"#utility.yul\":10995:11004   */\n      not\n        /* \"#utility.yul\":10987:10993   */\n      dup5\n        /* \"#utility.yul\":10983:11005   */\n      and\n        /* \"#utility.yul\":11033:11070   */\n      tag_249\n        /* \"#utility.yul\":11065:11069   */\n      dup7\n        /* \"#utility.yul\":11033:11070   */\n      tag_105\n      jump\t// in\n    tag_249:\n        /* \"#utility.yul\":11092:11093   */\n      0x00\n        /* \"#utility.yul\":11106:11314   */\n    tag_250:\n        /* \"#utility.yul\":11120:11127   */\n      dup3\n        /* \"#utility.yul\":11117:11118   */\n      dup2\n        /* \"#utility.yul\":11114:11128   */\n      lt\n        /* \"#utility.yul\":11106:11314   */\n      iszero\n      tag_252\n      jumpi\n        /* \"#utility.yul\":11199:11208   */\n      dup5\n        /* \"#utility.yul\":11194:11197   */\n      dup10\n        /* \"#utility.yul\":11190:11209   */\n      add\n        /* \"#utility.yul\":11184:11210   */\n      mload\n        /* \"#utility.yul\":11176:11182   */\n      dup3\n        /* \"#utility.yul\":11169:11211   */\n      sstore\n        /* \"#utility.yul\":11250:11251   */\n      0x01\n        /* \"#utility.yul\":11242:11248   */\n      dup3\n        /* \"#utility.yul\":11238:11252   */\n      add\n        /* \"#utility.yul\":11228:11252   */\n      swap2\n      pop\n        /* \"#utility.yul\":11297:11299   */\n      0x20\n        /* \"#utility.yul\":11286:11295   */\n      dup6\n        /* \"#utility.yul\":11282:11300   */\n      add\n        /* \"#utility.yul\":11269:11300   */\n      swap5\n      pop\n        /* \"#utility.yul\":11143:11147   */\n      0x20\n        /* \"#utility.yul\":11140:11141   */\n      dup2\n        /* \"#utility.yul\":11136:11148   */\n      add\n        /* \"#utility.yul\":11131:11148   */\n      swap1\n      pop\n        /* \"#utility.yul\":11106:11314   */\n      jump(tag_250)\n    tag_252:\n        /* \"#utility.yul\":11342:11348   */\n      dup7\n        /* \"#utility.yul\":11333:11340   */\n      dup4\n        /* \"#utility.yul\":11330:11349   */\n      lt\n        /* \"#utility.yul\":11327:11506   */\n      iszero\n      tag_253\n      jumpi\n        /* \"#utility.yul\":11400:11409   */\n      dup5\n        /* \"#utility.yul\":11395:11398   */\n      dup10\n        /* \"#utility.yul\":11391:11410   */\n      add\n        /* \"#utility.yul\":11385:11411   */\n      mload\n        /* \"#utility.yul\":11443:11491   */\n      tag_254\n        /* \"#utility.yul\":11485:11489   */\n      0x1f\n        /* \"#utility.yul\":11477:11483   */\n      dup10\n        /* \"#utility.yul\":11473:11490   */\n      and\n        /* \"#utility.yul\":11462:11471   */\n      dup3\n        /* \"#utility.yul\":11443:11491   */\n      tag_118\n      jump\t// in\n    tag_254:\n        /* \"#utility.yul\":11435:11441   */\n      dup4\n        /* \"#utility.yul\":11428:11492   */\n      sstore\n        /* \"#utility.yul\":11350:11506   */\n      pop\n        /* \"#utility.yul\":11327:11506   */\n    tag_253:\n        /* \"#utility.yul\":11552:11553   */\n      0x01\n        /* \"#utility.yul\":11548:11549   */\n      0x02\n        /* \"#utility.yul\":11540:11546   */\n      dup9\n        /* \"#utility.yul\":11536:11550   */\n      mul\n        /* \"#utility.yul\":11532:11554   */\n      add\n        /* \"#utility.yul\":11526:11530   */\n      dup9\n        /* \"#utility.yul\":11519:11555   */\n      sstore\n        /* \"#utility.yul\":10954:11565   */\n      pop\n      pop\n      pop\n        /* \"#utility.yul\":10917:11804   */\n    tag_245:\n      pop\n        /* \"#utility.yul\":10507:11810   */\n      pop\n      pop\n      pop\n        /* \"#utility.yul\":10415:11810   */\n      pop\n      pop\n      jump\t// out\n\n    auxdata: 0xa26469706673582212200262aa606f4cbd5528855ba89638df949cade8d584718285034b1906830da37864736f6c634300081a0033\n}\n",
				"bytecode": {
					"linkReferences": {},
					"object": "6080604052348015600e575f80fd5b50610c0d8061001c5f395ff3fe608060405234801561000f575f80fd5b5060043610610086575f3560e01c8063bc4bfa8511610059578063bc4bfa851461010e578063bd19828c1461013e578063d08d592a14610170578063d225aa6d1461018c57610086565b8063076e31621461008a5780631dfdb1cb146100ba578063201d54fb146100d6578063564c208a146100f2575b5f80fd5b6100a4600480360381019061009f91906105da565b6101a8565b6040516100b1919061061f565b60405180910390f35b6100d460048036038101906100cf9190610774565b6101b8565b005b6100f060048036038101906100eb9190610774565b610235565b005b61010c60048036038101906101079190610774565b6102b2565b005b610128600480360381019061012391906107fc565b61032f565b6040516101359190610852565b60405180910390f35b610158600480360381019061015391906105da565b61035c565b604051610167939291906108cb565b60405180910390f35b61018a60048036038101906101859190610774565b61049c565b005b6101a660048036038101906101a19190610774565b610519565b005b5f6101b2826101a8565b50919050565b5f604051806060016040528084815260200183815260200185815250908060018154018082558091505060019003905f5260205f2090600302015f909190919091505f820151815f01908161020d9190610b08565b5060208201518160010190816102239190610b08565b50604082015181600201555050505050565b5f604051806060016040528084815260200183815260200185815250908060018154018082558091505060019003905f5260205f2090600302015f909190919091505f820151815f01908161028a9190610b08565b5060208201518160010190816102a09190610b08565b50604082015181600201555050505050565b5f604051806060016040528084815260200183815260200185815250908060018154018082558091505060019003905f5260205f2090600302015f909190919091505f820151815f0190816103079190610b08565b50602082015181600101908161031d9190610b08565b50604082015181600201555050505050565b6001818051602081018201805184825260208301602085012081835280955050505050505f915090505481565b5f818154811061036a575f80fd5b905f5260205f2090600302015f91509050805f0180546103899061093b565b80601f01602080910402602001604051908101604052809291908181526020018280546103b59061093b565b80156104005780601f106103d757610100808354040283529160200191610400565b820191905f5260205f20905b8154815290600101906020018083116103e357829003601f168201915b5050505050908060010180546104159061093b565b80601f01602080910402602001604051908101604052809291908181526020018280546104419061093b565b801561048c5780601f106104635761010080835404028352916020019161048c565b820191905f5260205f20905b81548152906001019060200180831161046f57829003601f168201915b5050505050908060020154905083565b5f604051806060016040528084815260200183815260200185815250908060018154018082558091505060019003905f5260205f2090600302015f909190919091505f820151815f0190816104f19190610b08565b5060208201518160010190816105079190610b08565b50604082015181600201555050505050565b5f604051806060016040528084815260200183815260200185815250908060018154018082558091505060019003905f5260205f2090600302015f909190919091505f820151815f01908161056e9190610b08565b5060208201518160010190816105849190610b08565b50604082015181600201555050505050565b5f604051905090565b5f80fd5b5f80fd5b5f819050919050565b6105b9816105a7565b81146105c3575f80fd5b50565b5f813590506105d4816105b0565b92915050565b5f602082840312156105ef576105ee61059f565b5b5f6105fc848285016105c6565b91505092915050565b5f8115159050919050565b61061981610605565b82525050565b5f6020820190506106325f830184610610565b92915050565b5f80fd5b5f80fd5b5f601f19601f8301169050919050565b7f4e487b71000000000000000000000000000000000000000000000000000000005f52604160045260245ffd5b61068682610640565b810181811067ffffffffffffffff821117156106a5576106a4610650565b5b80604052505050565b5f6106b7610596565b90506106c3828261067d565b919050565b5f67ffffffffffffffff8211156106e2576106e1610650565b5b6106eb82610640565b9050602081019050919050565b828183375f83830152505050565b5f610718610713846106c8565b6106ae565b9050828152602081018484840111156107345761073361063c565b5b61073f8482856106f8565b509392505050565b5f82601f83011261075b5761075a610638565b5b813561076b848260208601610706565b91505092915050565b5f805f6060848603121561078b5761078a61059f565b5b5f610798868287016105c6565b935050602084013567ffffffffffffffff8111156107b9576107b86105a3565b5b6107c586828701610747565b925050604084013567ffffffffffffffff8111156107e6576107e56105a3565b5b6107f286828701610747565b9150509250925092565b5f602082840312156108115761081061059f565b5b5f82013567ffffffffffffffff81111561082e5761082d6105a3565b5b61083a84828501610747565b91505092915050565b61084c816105a7565b82525050565b5f6020820190506108655f830184610843565b92915050565b5f81519050919050565b5f82825260208201905092915050565b8281835e5f83830152505050565b5f61089d8261086b565b6108a78185610875565b93506108b7818560208601610885565b6108c081610640565b840191505092915050565b5f6060820190508181035f8301526108e38186610893565b905081810360208301526108f78185610893565b90506109066040830184610843565b949350505050565b7f4e487b71000000000000000000000000000000000000000000000000000000005f52602260045260245ffd5b5f600282049050600182168061095257607f821691505b6020821081036109655761096461090e565b5b50919050565b5f819050815f5260205f209050919050565b5f6020601f8301049050919050565b5f82821b905092915050565b5f600883026109c77fffffffffffffffffffffffffffffffffffffffffffffffffffffffffffffffff8261098c565b6109d1868361098c565b95508019841693508086168417925050509392505050565b5f819050919050565b5f610a0c610a07610a02846105a7565b6109e9565b6105a7565b9050919050565b5f819050919050565b610a25836109f2565b610a39610a3182610a13565b848454610998565b825550505050565b5f90565b610a4d610a41565b610a58818484610a1c565b505050565b5b81811015610a7b57610a705f82610a45565b600181019050610a5e565b5050565b601f821115610ac057610a918161096b565b610a9a8461097d565b81016020851015610aa9578190505b610abd610ab58561097d565b830182610a5d565b50505b505050565b5f82821c905092915050565b5f610ae05f1984600802610ac5565b1980831691505092915050565b5f610af88383610ad1565b9150826002028217905092915050565b610b118261086b565b67ffffffffffffffff811115610b2a57610b29610650565b5b610b34825461093b565b610b3f828285610a7f565b5f60209050601f831160018114610b70575f8415610b5e578287015190505b610b688582610aed565b865550610bcf565b601f198416610b7e8661096b565b5f5b82811015610ba557848901518255600182019150602085019450602081019050610b80565b86831015610bc25784890151610bbe601f891682610ad1565b8355505b6001600288020188555050505b50505050505056fea26469706673582212200262aa606f4cbd5528855ba89638df949cade8d584718285034b1906830da37864736f6c634300081a0033",
					"opcodes": "PUSH1 0x80 PUSH1 0x40 MSTORE CALLVALUE DUP1 ISZERO PUSH1 0xE JUMPI PUSH0 DUP1 REVERT JUMPDEST POP PUSH2 0xC0D DUP1 PUSH2 0x1C PUSH0 CODECOPY PUSH0 RETURN INVALID PUSH1 0x80 PUSH1 0x40 MSTORE CALLVALUE DUP1 ISZERO PUSH2 0xF JUMPI PUSH0 DUP1 REVERT JUMPDEST POP PUSH1 0x4 CALLDATASIZE LT PUSH2 0x86 JUMPI PUSH0 CALLDATALOAD PUSH1 0xE0 SHR DUP1 PUSH4 0xBC4BFA85 GT PUSH2 0x59 JUMPI DUP1 PUSH4 0xBC4BFA85 EQ PUSH2 0x10E JUMPI DUP1 PUSH4 0xBD19828C EQ PUSH2 0x13E JUMPI DUP1 PUSH4 0xD08D592A EQ PUSH2 0x170 JUMPI DUP1 PUSH4 0xD225AA6D EQ PUSH2 0x18C JUMPI PUSH2 0x86 JUMP JUMPDEST DUP1 PUSH4 0x76E3162 EQ PUSH2 0x8A JUMPI DUP1 PUSH4 0x1DFDB1CB EQ PUSH2 0xBA JUMPI DUP1 PUSH4 0x201D54FB EQ PUSH2 0xD6 JUMPI DUP1 PUSH4 0x564C208A EQ PUSH2 0xF2 JUMPI JUMPDEST PUSH0 DUP1 REVERT JUMPDEST PUSH2 0xA4 PUSH1 0x4 DUP1 CALLDATASIZE SUB DUP2 ADD SWAP1 PUSH2 0x9F SWAP2 SWAP1 PUSH2 0x5DA JUMP JUMPDEST PUSH2 0x1A8 JUMP JUMPDEST PUSH1 0x40 MLOAD PUSH2 0xB1 SWAP2 SWAP1 PUSH2 0x61F JUMP JUMPDEST PUSH1 0x40 MLOAD DUP1 SWAP2 SUB SWAP1 RETURN JUMPDEST PUSH2 0xD4 PUSH1 0x4 DUP1 CALLDATASIZE SUB DUP2 ADD SWAP1 PUSH2 0xCF SWAP2 SWAP1 PUSH2 0x774 JUMP JUMPDEST PUSH2 0x1B8 JUMP JUMPDEST STOP JUMPDEST PUSH2 0xF0 PUSH1 0x4 DUP1 CALLDATASIZE SUB DUP2 ADD SWAP1 PUSH2 0xEB SWAP2 SWAP1 PUSH2 0x774 JUMP JUMPDEST PUSH2 0x235 JUMP JUMPDEST STOP JUMPDEST PUSH2 0x10C PUSH1 0x4 DUP1 CALLDATASIZE SUB DUP2 ADD SWAP1 PUSH2 0x107 SWAP2 SWAP1 PUSH2 0x774 JUMP JUMPDEST PUSH2 0x2B2 JUMP JUMPDEST STOP JUMPDEST PUSH2 0x128 PUSH1 0x4 DUP1 CALLDATASIZE SUB DUP2 ADD SWAP1 PUSH2 0x123 SWAP2 SWAP1 PUSH2 0x7FC JUMP JUMPDEST PUSH2 0x32F JUMP JUMPDEST PUSH1 0x40 MLOAD PUSH2 0x135 SWAP2 SWAP1 PUSH2 0x852 JUMP JUMPDEST PUSH1 0x40 MLOAD DUP1 SWAP2 SUB SWAP1 RETURN JUMPDEST PUSH2 0x158 PUSH1 0x4 DUP1 CALLDATASIZE SUB DUP2 ADD SWAP1 PUSH2 0x153 SWAP2 SWAP1 PUSH2 0x5DA JUMP JUMPDEST PUSH2 0x35C JUMP JUMPDEST PUSH1 0x40 MLOAD PUSH2 0x167 SWAP4 SWAP3 SWAP2 SWAP1 PUSH2 0x8CB JUMP JUMPDEST PUSH1 0x40 MLOAD DUP1 SWAP2 SUB SWAP1 RETURN JUMPDEST PUSH2 0x18A PUSH1 0x4 DUP1 CALLDATASIZE SUB DUP2 ADD SWAP1 PUSH2 0x185 SWAP2 SWAP1 PUSH2 0x774 JUMP JUMPDEST PUSH2 0x49C JUMP JUMPDEST STOP JUMPDEST PUSH2 0x1A6 PUSH1 0x4 DUP1 CALLDATASIZE SUB DUP2 ADD SWAP1 PUSH2 0x1A1 SWAP2 SWAP1 PUSH2 0x774 JUMP JUMPDEST PUSH2 0x519 JUMP JUMPDEST STOP JUMPDEST PUSH0 PUSH2 0x1B2 DUP3 PUSH2 0x1A8 JUMP JUMPDEST POP SWAP2 SWAP1 POP JUMP JUMPDEST PUSH0 PUSH1 0x40 MLOAD DUP1 PUSH1 0x60 ADD PUSH1 0x40 MSTORE DUP1 DUP5 DUP2 MSTORE PUSH1 0x20 ADD DUP4 DUP2 MSTORE PUSH1 0x20 ADD DUP6 DUP2 MSTORE POP SWAP1 DUP1 PUSH1 0x1 DUP2 SLOAD ADD DUP1 DUP3 SSTORE DUP1 SWAP2 POP POP PUSH1 0x1 SWAP1 SUB SWAP1 PUSH0 MSTORE PUSH1 0x20 PUSH0 KECCAK256 SWAP1 PUSH1 0x3 MUL ADD PUSH0 SWAP1 SWAP2 SWAP1 SWAP2 SWAP1 SWAP2 POP PUSH0 DUP3 ADD MLOAD DUP2 PUSH0 ADD SWAP1 DUP2 PUSH2 0x20D SWAP2 SWAP1 PUSH2 0xB08 JUMP JUMPDEST POP PUSH1 0x20 DUP3 ADD MLOAD DUP2 PUSH1 0x1 ADD SWAP1 DUP2 PUSH2 0x223 SWAP2 SWAP1 PUSH2 0xB08 JUMP JUMPDEST POP PUSH1 0x40 DUP3 ADD MLOAD DUP2 PUSH1 0x2 ADD SSTORE POP POP POP POP POP JUMP JUMPDEST PUSH0 PUSH1 0x40 MLOAD DUP1 PUSH1 0x60 ADD PUSH1 0x40 MSTORE DUP1 DUP5 DUP2 MSTORE PUSH1 0x20 ADD DUP4 DUP2 MSTORE PUSH1 0x20 ADD DUP6 DUP2 MSTORE POP SWAP1 DUP1 PUSH1 0x1 DUP2 SLOAD ADD DUP1 DUP3 SSTORE DUP1 SWAP2 POP POP PUSH1 0x1 SWAP1 SUB SWAP1 PUSH0 MSTORE PUSH1 0x20 PUSH0 KECCAK256 SWAP1 PUSH1 0x3 MUL ADD PUSH0 SWAP1 SWAP2 SWAP1 SWAP2 SWAP1 SWAP2 POP PUSH0 DUP3 ADD MLOAD DUP2 PUSH0 ADD SWAP1 DUP2 PUSH2 0x28A SWAP2 SWAP1 PUSH2 0xB08 JUMP JUMPDEST POP PUSH1 0x20 DUP3 ADD MLOAD DUP2 PUSH1 0x1 ADD SWAP1 DUP2 PUSH2 0x2A0 SWAP2 SWAP1 PUSH2 0xB08 JUMP JUMPDEST POP PUSH1 0x40 DUP3 ADD MLOAD DUP2 PUSH1 0x2 ADD SSTORE POP POP POP POP POP JUMP JUMPDEST PUSH0 PUSH1 0x40 MLOAD DUP1 PUSH1 0x60 ADD PUSH1 0x40 MSTORE DUP1 DUP5 DUP2 MSTORE PUSH1 0x20 ADD DUP4 DUP2 MSTORE PUSH1 0x20 ADD DUP6 DUP2 MSTORE POP SWAP1 DUP1 PUSH1 0x1 DUP2 SLOAD ADD DUP1 DUP3 SSTORE DUP1 SWAP2 POP POP PUSH1 0x1 SWAP1 SUB SWAP1 PUSH0 MSTORE PUSH1 0x20 PUSH0 KECCAK256 SWAP1 PUSH1 0x3 MUL ADD PUSH0 SWAP1 SWAP2 SWAP1 SWAP2 SWAP1 SWAP2 POP PUSH0 DUP3 ADD MLOAD DUP2 PUSH0 ADD SWAP1 DUP2 PUSH2 0x307 SWAP2 SWAP1 PUSH2 0xB08 JUMP JUMPDEST POP PUSH1 0x20 DUP3 ADD MLOAD DUP2 PUSH1 0x1 ADD SWAP1 DUP2 PUSH2 0x31D SWAP2 SWAP1 PUSH2 0xB08 JUMP JUMPDEST POP PUSH1 0x40 DUP3 ADD MLOAD DUP2 PUSH1 0x2 ADD SSTORE POP POP POP POP POP JUMP JUMPDEST PUSH1 0x1 DUP2 DUP1 MLOAD PUSH1 0x20 DUP2 ADD DUP3 ADD DUP1 MLOAD DUP5 DUP3 MSTORE PUSH1 0x20 DUP4 ADD PUSH1 0x20 DUP6 ADD KECCAK256 DUP2 DUP4 MSTORE DUP1 SWAP6 POP POP POP POP POP POP PUSH0 SWAP2 POP SWAP1 POP SLOAD DUP2 JUMP JUMPDEST PUSH0 DUP2 DUP2 SLOAD DUP2 LT PUSH2 0x36A JUMPI PUSH0 DUP1 REVERT JUMPDEST SWAP1 PUSH0 MSTORE PUSH1 0x20 PUSH0 KECCAK256 SWAP1 PUSH1 0x3 MUL ADD PUSH0 SWAP2 POP SWAP1 POP DUP1 PUSH0 ADD DUP1 SLOAD PUSH2 0x389 SWAP1 PUSH2 0x93B JUMP JUMPDEST DUP1 PUSH1 0x1F ADD PUSH1 0x20 DUP1 SWAP2 DIV MUL PUSH1 0x20 ADD PUSH1 0x40 MLOAD SWAP1 DUP2 ADD PUSH1 0x40 MSTORE DUP1 SWAP3 SWAP2 SWAP1 DUP2 DUP2 MSTORE PUSH1 0x20 ADD DUP3 DUP1 SLOAD PUSH2 0x3B5 SWAP1 PUSH2 0x93B JUMP JUMPDEST DUP1 ISZERO PUSH2 0x400 JUMPI DUP1 PUSH1 0x1F LT PUSH2 0x3D7 JUMPI PUSH2 0x100 DUP1 DUP4 SLOAD DIV MUL DUP4 MSTORE SWAP2 PUSH1 0x20 ADD SWAP2 PUSH2 0x400 JUMP JUMPDEST DUP3 ADD SWAP2 SWAP1 PUSH0 MSTORE PUSH1 0x20 PUSH0 KECCAK256 SWAP1 JUMPDEST DUP2 SLOAD DUP2 MSTORE SWAP1 PUSH1 0x1 ADD SWAP1 PUSH1 0x20 ADD DUP1 DUP4 GT PUSH2 0x3E3 JUMPI DUP3 SWAP1 SUB PUSH1 0x1F AND DUP3 ADD SWAP2 JUMPDEST POP POP POP POP POP SWAP1 DUP1 PUSH1 0x1 ADD DUP1 SLOAD PUSH2 0x415 SWAP1 PUSH2 0x93B JUMP JUMPDEST DUP1 PUSH1 0x1F ADD PUSH1 0x20 DUP1 SWAP2 DIV MUL PUSH1 0x20 ADD PUSH1 0x40 MLOAD SWAP1 DUP2 ADD PUSH1 0x40 MSTORE DUP1 SWAP3 SWAP2 SWAP1 DUP2 DUP2 MSTORE PUSH1 0x20 ADD DUP3 DUP1 SLOAD PUSH2 0x441 SWAP1 PUSH2 0x93B JUMP JUMPDEST DUP1 ISZERO PUSH2 0x48C JUMPI DUP1 PUSH1 0x1F LT PUSH2 0x463 JUMPI PUSH2 0x100 DUP1 DUP4 SLOAD DIV MUL DUP4 MSTORE SWAP2 PUSH1 0x20 ADD SWAP2 PUSH2 0x48C JUMP JUMPDEST DUP3 ADD SWAP2 SWAP1 PUSH0 MSTORE PUSH1 0x20 PUSH0 KECCAK256 SWAP1 JUMPDEST DUP2 SLOAD DUP2 MSTORE SWAP1 PUSH1 0x1 ADD SWAP1 PUSH1 0x20 ADD DUP1 DUP4 GT PUSH2 0x46F JUMPI DUP3 SWAP1 SUB PUSH1 0x1F AND DUP3 ADD SWAP2 JUMPDEST POP POP POP POP POP SWAP1 DUP1 PUSH1 0x2 ADD SLOAD SWAP1 POP DUP4 JUMP JUMPDEST PUSH0 PUSH1 0x40 MLOAD DUP1 PUSH1 0x60 ADD PUSH1 0x40 MSTORE DUP1 DUP5 DUP2 MSTORE PUSH1 0x20 ADD DUP4 DUP2 MSTORE PUSH1 0x20 ADD DUP6 DUP2 MSTORE POP SWAP1 DUP1 PUSH1 0x1 DUP2 SLOAD ADD DUP1 DUP3 SSTORE DUP1 SWAP2 POP POP PUSH1 0x1 SWAP1 SUB SWAP1 PUSH0 MSTORE PUSH1 0x20 PUSH0 KECCAK256 SWAP1 PUSH1 0x3 MUL ADD PUSH0 SWAP1 SWAP2 SWAP1 SWAP2 SWAP1 SWAP2 POP PUSH0 DUP3 ADD MLOAD DUP2 PUSH0 ADD SWAP1 DUP2 PUSH2 0x4F1 SWAP2 SWAP1 PUSH2 0xB08 JUMP JUMPDEST POP PUSH1 0x20 DUP3 ADD MLOAD DUP2 PUSH1 0x1 ADD SWAP1 DUP2 PUSH2 0x507 SWAP2 SWAP1 PUSH2 0xB08 JUMP JUMPDEST POP PUSH1 0x40 DUP3 ADD MLOAD DUP2 PUSH1 0x2 ADD SSTORE POP POP POP POP POP JUMP JUMPDEST PUSH0 PUSH1 0x40 MLOAD DUP1 PUSH1 0x60 ADD PUSH1 0x40 MSTORE DUP1 DUP5 DUP2 MSTORE PUSH1 0x20 ADD DUP4 DUP2 MSTORE PUSH1 0x20 ADD DUP6 DUP2 MSTORE POP SWAP1 DUP1 PUSH1 0x1 DUP2 SLOAD ADD DUP1 DUP3 SSTORE DUP1 SWAP2 POP POP PUSH1 0x1 SWAP1 SUB SWAP1 PUSH0 MSTORE PUSH1 0x20 PUSH0 KECCAK256 SWAP1 PUSH1 0x3 MUL ADD PUSH0 SWAP1 SWAP2 SWAP1 SWAP2 SWAP1 SWAP2 POP PUSH0 DUP3 ADD MLOAD DUP2 PUSH0 ADD SWAP1 DUP2 PUSH2 0x56E SWAP2 SWAP1 PUSH2 0xB08 JUMP JUMPDEST POP PUSH1 0x20 DUP3 ADD MLOAD DUP2 PUSH1 0x1 ADD SWAP1 DUP2 PUSH2 0x584 SWAP2 SWAP1 PUSH2 0xB08 JUMP JUMPDEST POP PUSH1 0x40 DUP3 ADD MLOAD DUP2 PUSH1 0x2 ADD SSTORE POP POP POP POP POP JUMP JUMPDEST PUSH0 PUSH1 0x40 MLOAD SWAP1 POP SWAP1 JUMP JUMPDEST PUSH0 DUP1 REVERT JUMPDEST PUSH0 DUP1 REVERT JUMPDEST PUSH0 DUP2 SWAP1 POP SWAP2 SWAP1 POP JUMP JUMPDEST PUSH2 0x5B9 DUP2 PUSH2 0x5A7 JUMP JUMPDEST DUP2 EQ PUSH2 0x5C3 JUMPI PUSH0 DUP1 REVERT JUMPDEST POP JUMP JUMPDEST PUSH0 DUP2 CALLDATALOAD SWAP1 POP PUSH2 0x5D4 DUP2 PUSH2 0x5B0 JUMP JUMPDEST SWAP3 SWAP2 POP POP JUMP JUMPDEST PUSH0 PUSH1 0x20 DUP3 DUP5 SUB SLT ISZERO PUSH2 0x5EF JUMPI PUSH2 0x5EE PUSH2 0x59F JUMP JUMPDEST JUMPDEST PUSH0 PUSH2 0x5FC DUP5 DUP3 DUP6 ADD PUSH2 0x5C6 JUMP JUMPDEST SWAP2 POP POP SWAP3 SWAP2 POP POP JUMP JUMPDEST PUSH0 DUP2 ISZERO ISZERO SWAP1 POP SWAP2 SWAP1 POP JUMP JUMPDEST PUSH2 0x619 DUP2 PUSH2 0x605 JUMP JUMPDEST DUP3 MSTORE POP POP JUMP JUMPDEST PUSH0 PUSH1 0x20 DUP3 ADD SWAP1 POP PUSH2 0x632 PUSH0 DUP4 ADD DUP5 PUSH2 0x610 JUMP JUMPDEST SWAP3 SWAP2 POP POP JUMP JUMPDEST PUSH0 DUP1 REVERT JUMPDEST PUSH0 DUP1 REVERT JUMPDEST PUSH0 PUSH1 0x1F NOT PUSH1 0x1F DUP4 ADD AND SWAP1 POP SWAP2 SWAP1 POP JUMP JUMPDEST PUSH32 0x4E487B7100000000000000000000000000000000000000000000000000000000 PUSH0 MSTORE PUSH1 0x41 PUSH1 0x4 MSTORE PUSH1 0x24 PUSH0 REVERT JUMPDEST PUSH2 0x686 DUP3 PUSH2 0x640 JUMP JUMPDEST DUP2 ADD DUP2 DUP2 LT PUSH8 0xFFFFFFFFFFFFFFFF DUP3 GT OR ISZERO PUSH2 0x6A5 JUMPI PUSH2 0x6A4 PUSH2 0x650 JUMP JUMPDEST JUMPDEST DUP1 PUSH1 0x40 MSTORE POP POP POP JUMP JUMPDEST PUSH0 PUSH2 0x6B7 PUSH2 0x596 JUMP JUMPDEST SWAP1 POP PUSH2 0x6C3 DUP3 DUP3 PUSH2 0x67D JUMP JUMPDEST SWAP2 SWAP1 POP JUMP JUMPDEST PUSH0 PUSH8 0xFFFFFFFFFFFFFFFF DUP3 GT ISZERO PUSH2 0x6E2 JUMPI PUSH2 0x6E1 PUSH2 0x650 JUMP JUMPDEST JUMPDEST PUSH2 0x6EB DUP3 PUSH2 0x640 JUMP JUMPDEST SWAP1 POP PUSH1 0x20 DUP2 ADD SWAP1 POP SWAP2 SWAP1 POP JUMP JUMPDEST DUP3 DUP2 DUP4 CALLDATACOPY PUSH0 DUP4 DUP4 ADD MSTORE POP POP POP JUMP JUMPDEST PUSH0 PUSH2 0x718 PUSH2 0x713 DUP5 PUSH2 0x6C8 JUMP JUMPDEST PUSH2 0x6AE JUMP JUMPDEST SWAP1 POP DUP3 DUP2 MSTORE PUSH1 0x20 DUP2 ADD DUP5 DUP5 DUP5 ADD GT ISZERO PUSH2 0x734 JUMPI PUSH2 0x733 PUSH2 0x63C JUMP JUMPDEST JUMPDEST PUSH2 0x73F DUP5 DUP3 DUP6 PUSH2 0x6F8 JUMP JUMPDEST POP SWAP4 SWAP3 POP POP POP JUMP JUMPDEST PUSH0 DUP3 PUSH1 0x1F DUP4 ADD SLT PUSH2 0x75B JUMPI PUSH2 0x75A PUSH2 0x638 JUMP JUMPDEST JUMPDEST DUP2 CALLDATALOAD PUSH2 0x76B DUP5 DUP3 PUSH1 0x20 DUP7 ADD PUSH2 0x706 JUMP JUMPDEST SWAP2 POP POP SWAP3 SWAP2 POP POP JUMP JUMPDEST PUSH0 DUP1 PUSH0 PUSH1 0x60 DUP5 DUP7 SUB SLT ISZERO PUSH2 0x78B JUMPI PUSH2 0x78A PUSH2 0x59F JUMP JUMPDEST JUMPDEST PUSH0 PUSH2 0x798 DUP7 DUP3 DUP8 ADD PUSH2 0x5C6 JUMP JUMPDEST SWAP4 POP POP PUSH1 0x20 DUP5 ADD CALLDATALOAD PUSH8 0xFFFFFFFFFFFFFFFF DUP2 GT ISZERO PUSH2 0x7B9 JUMPI PUSH2 0x7B8 PUSH2 0x5A3 JUMP JUMPDEST JUMPDEST PUSH2 0x7C5 DUP7 DUP3 DUP8 ADD PUSH2 0x747 JUMP JUMPDEST SWAP3 POP POP PUSH1 0x40 DUP5 ADD CALLDATALOAD PUSH8 0xFFFFFFFFFFFFFFFF DUP2 GT ISZERO PUSH2 0x7E6 JUMPI PUSH2 0x7E5 PUSH2 0x5A3 JUMP JUMPDEST JUMPDEST PUSH2 0x7F2 DUP7 DUP3 DUP8 ADD PUSH2 0x747 JUMP JUMPDEST SWAP2 POP POP SWAP3 POP SWAP3 POP SWAP3 JUMP JUMPDEST PUSH0 PUSH1 0x20 DUP3 DUP5 SUB SLT ISZERO PUSH2 0x811 JUMPI PUSH2 0x810 PUSH2 0x59F JUMP JUMPDEST JUMPDEST PUSH0 DUP3 ADD CALLDATALOAD PUSH8 0xFFFFFFFFFFFFFFFF DUP2 GT ISZERO PUSH2 0x82E JUMPI PUSH2 0x82D PUSH2 0x5A3 JUMP JUMPDEST JUMPDEST PUSH2 0x83A DUP5 DUP3 DUP6 ADD PUSH2 0x747 JUMP JUMPDEST SWAP2 POP POP SWAP3 SWAP2 POP POP JUMP JUMPDEST PUSH2 0x84C DUP2 PUSH2 0x5A7 JUMP JUMPDEST DUP3 MSTORE POP POP JUMP JUMPDEST PUSH0 PUSH1 0x20 DUP3 ADD SWAP1 POP PUSH2 0x865 PUSH0 DUP4 ADD DUP5 PUSH2 0x843 JUMP JUMPDEST SWAP3 SWAP2 POP POP JUMP JUMPDEST PUSH0 DUP2 MLOAD SWAP1 POP SWAP2 SWAP1 POP JUMP JUMPDEST PUSH0 DUP3 DUP3 MSTORE PUSH1 0x20 DUP3 ADD SWAP1 POP SWAP3 SWAP2 POP POP JUMP JUMPDEST DUP3 DUP2 DUP4 MCOPY PUSH0 DUP4 DUP4 ADD MSTORE POP POP POP JUMP JUMPDEST PUSH0 PUSH2 0x89D DUP3 PUSH2 0x86B JUMP JUMPDEST PUSH2 0x8A7 DUP2 DUP6 PUSH2 0x875 JUMP JUMPDEST SWAP4 POP PUSH2 0x8B7 DUP2 DUP6 PUSH1 0x20 DUP7 ADD PUSH2 0x885 JUMP JUMPDEST PUSH2 0x8C0 DUP2 PUSH2 0x640 JUMP JUMPDEST DUP5 ADD SWAP2 POP POP SWAP3 SWAP2 POP POP JUMP JUMPDEST PUSH0 PUSH1 0x60 DUP3 ADD SWAP1 POP DUP2 DUP2 SUB PUSH0 DUP4 ADD MSTORE PUSH2 0x8E3 DUP2 DUP7 PUSH2 0x893 JUMP JUMPDEST SWAP1 POP DUP2 DUP2 SUB PUSH1 0x20 DUP4 ADD MSTORE PUSH2 0x8F7 DUP2 DUP6 PUSH2 0x893 JUMP JUMPDEST SWAP1 POP PUSH2 0x906 PUSH1 0x40 DUP4 ADD DUP5 PUSH2 0x843 JUMP JUMPDEST SWAP5 SWAP4 POP POP POP POP JUMP JUMPDEST PUSH32 0x4E487B7100000000000000000000000000000000000000000000000000000000 PUSH0 MSTORE PUSH1 0x22 PUSH1 0x4 MSTORE PUSH1 0x24 PUSH0 REVERT JUMPDEST PUSH0 PUSH1 0x2 DUP3 DIV SWAP1 POP PUSH1 0x1 DUP3 AND DUP1 PUSH2 0x952 JUMPI PUSH1 0x7F DUP3 AND SWAP2 POP JUMPDEST PUSH1 0x20 DUP3 LT DUP2 SUB PUSH2 0x965 JUMPI PUSH2 0x964 PUSH2 0x90E JUMP JUMPDEST JUMPDEST POP SWAP2 SWAP1 POP JUMP JUMPDEST PUSH0 DUP2 SWAP1 POP DUP2 PUSH0 MSTORE PUSH1 0x20 PUSH0 KECCAK256 SWAP1 POP SWAP2 SWAP1 POP JUMP JUMPDEST PUSH0 PUSH1 0x20 PUSH1 0x1F DUP4 ADD DIV SWAP1 POP SWAP2 SWAP1 POP JUMP JUMPDEST PUSH0 DUP3 DUP3 SHL SWAP1 POP SWAP3 SWAP2 POP POP JUMP JUMPDEST PUSH0 PUSH1 0x8 DUP4 MUL PUSH2 0x9C7 PUSH32 0xFFFFFFFFFFFFFFFFFFFFFFFFFFFFFFFFFFFFFFFFFFFFFFFFFFFFFFFFFFFFFFFF DUP3 PUSH2 0x98C JUMP JUMPDEST PUSH2 0x9D1 DUP7 DUP4 PUSH2 0x98C JUMP JUMPDEST SWAP6 POP DUP1 NOT DUP5 AND SWAP4 POP DUP1 DUP7 AND DUP5 OR SWAP3 POP POP POP SWAP4 SWAP3 POP POP POP JUMP JUMPDEST PUSH0 DUP2 SWAP1 POP SWAP2 SWAP1 POP JUMP JUMPDEST PUSH0 PUSH2 0xA0C PUSH2 0xA07 PUSH2 0xA02 DUP5 PUSH2 0x5A7 JUMP JUMPDEST PUSH2 0x9E9 JUMP JUMPDEST PUSH2 0x5A7 JUMP JUMPDEST SWAP1 POP SWAP2 SWAP1 POP JUMP JUMPDEST PUSH0 DUP2 SWAP1 POP SWAP2 SWAP1 POP JUMP JUMPDEST PUSH2 0xA25 DUP4 PUSH2 0x9F2 JUMP JUMPDEST PUSH2 0xA39 PUSH2 0xA31 DUP3 PUSH2 0xA13 JUMP JUMPDEST DUP5 DUP5 SLOAD PUSH2 0x998 JUMP JUMPDEST DUP3 SSTORE POP POP POP POP JUMP JUMPDEST PUSH0 SWAP1 JUMP JUMPDEST PUSH2 0xA4D PUSH2 0xA41 JUMP JUMPDEST PUSH2 0xA58 DUP2 DUP5 DUP5 PUSH2 0xA1C JUMP JUMPDEST POP POP POP JUMP JUMPDEST JUMPDEST DUP2 DUP2 LT ISZERO PUSH2 0xA7B JUMPI PUSH2 0xA70 PUSH0 DUP3 PUSH2 0xA45 JUMP JUMPDEST PUSH1 0x1 DUP2 ADD SWAP1 POP PUSH2 0xA5E JUMP JUMPDEST POP POP JUMP JUMPDEST PUSH1 0x1F DUP3 GT ISZERO PUSH2 0xAC0 JUMPI PUSH2 0xA91 DUP2 PUSH2 0x96B JUMP JUMPDEST PUSH2 0xA9A DUP5 PUSH2 0x97D JUMP JUMPDEST DUP2 ADD PUSH1 0x20 DUP6 LT ISZERO PUSH2 0xAA9 JUMPI DUP2 SWAP1 POP JUMPDEST PUSH2 0xABD PUSH2 0xAB5 DUP6 PUSH2 0x97D JUMP JUMPDEST DUP4 ADD DUP3 PUSH2 0xA5D JUMP JUMPDEST POP POP JUMPDEST POP POP POP JUMP JUMPDEST PUSH0 DUP3 DUP3 SHR SWAP1 POP SWAP3 SWAP2 POP POP JUMP JUMPDEST PUSH0 PUSH2 0xAE0 PUSH0 NOT DUP5 PUSH1 0x8 MUL PUSH2 0xAC5 JUMP JUMPDEST NOT DUP1 DUP4 AND SWAP2 POP POP SWAP3 SWAP2 POP POP JUMP JUMPDEST PUSH0 PUSH2 0xAF8 DUP4 DUP4 PUSH2 0xAD1 JUMP JUMPDEST SWAP2 POP DUP3 PUSH1 0x2 MUL DUP3 OR SWAP1 POP SWAP3 SWAP2 POP POP JUMP JUMPDEST PUSH2 0xB11 DUP3 PUSH2 0x86B JUMP JUMPDEST PUSH8 0xFFFFFFFFFFFFFFFF DUP2 GT ISZERO PUSH2 0xB2A JUMPI PUSH2 0xB29 PUSH2 0x650 JUMP JUMPDEST JUMPDEST PUSH2 0xB34 DUP3 SLOAD PUSH2 0x93B JUMP JUMPDEST PUSH2 0xB3F DUP3 DUP3 DUP6 PUSH2 0xA7F JUMP JUMPDEST PUSH0 PUSH1 0x20 SWAP1 POP PUSH1 0x1F DUP4 GT PUSH1 0x1 DUP2 EQ PUSH2 0xB70 JUMPI PUSH0 DUP5 ISZERO PUSH2 0xB5E JUMPI DUP3 DUP8 ADD MLOAD SWAP1 POP JUMPDEST PUSH2 0xB68 DUP6 DUP3 PUSH2 0xAED JUMP JUMPDEST DUP7 SSTORE POP PUSH2 0xBCF JUMP JUMPDEST PUSH1 0x1F NOT DUP5 AND PUSH2 0xB7E DUP7 PUSH2 0x96B JUMP JUMPDEST PUSH0 JUMPDEST DUP3 DUP2 LT ISZERO PUSH2 0xBA5 JUMPI DUP5 DUP10 ADD MLOAD DUP3 SSTORE PUSH1 0x1 DUP3 ADD SWAP2 POP PUSH1 0x20 DUP6 ADD SWAP5 POP PUSH1 0x20 DUP2 ADD SWAP1 POP PUSH2 0xB80 JUMP JUMPDEST DUP7 DUP4 LT ISZERO PUSH2 0xBC2 JUMPI DUP5 DUP10 ADD MLOAD PUSH2 0xBBE PUSH1 0x1F DUP10 AND DUP3 PUSH2 0xAD1 JUMP JUMPDEST DUP4 SSTORE POP JUMPDEST PUSH1 0x1 PUSH1 0x2 DUP9 MUL ADD DUP9 SSTORE POP POP POP JUMPDEST POP POP POP POP POP POP JUMP INVALID LOG2 PUSH5 0x6970667358 0x22 SLT KECCAK256 MUL PUSH3 0xAA606F 0x4C 0xBD SSTORE 0x28 DUP6 JUMPDEST 0xA8 SWAP7 CODESIZE 0xDF SWAP5 SWAP13 0xAD 0xE8 0xD5 DUP5 PUSH18 0x8285034B1906830DA37864736F6C63430008 BYTE STOP CALLER "
				},
				"gasEstimates": {
					"creation": {
						"codeDepositCost": "617000",
						"executionCost": "649",
						"totalCost": "617649"
					},
					"external": {
						"accountaddress(string)": "infinite",
						"counttheifs(uint256,string,string)": "infinite",
						"gettheifs(uint256,string,string)": "infinite",
						"getupdateDetails(uint256,string,string)": "infinite",
						"insertDetails(uint256,string,string)": "infinite",
						"theif(uint256)": "infinite",
						"updateDetails(uint256,string,string)": "infinite",
						"validatetheif(uint256)": "infinite"
					}
				},
				"methodIdentifiers": {
					"accountaddress(string)": "bc4bfa85",
					"counttheifs(uint256,string,string)": "d08d592a",
					"gettheifs(uint256,string,string)": "d225aa6d",
					"getupdateDetails(uint256,string,string)": "564c208a",
					"insertDetails(uint256,string,string)": "1dfdb1cb",
					"theif(uint256)": "bd19828c",
					"updateDetails(uint256,string,string)": "201d54fb",
					"validatetheif(uint256)": "076e3162"
				}
			},
			"storageLayout": {
				"storage": [
					{
						"astId": 12,
						"contract": "contracts/5_Theif.sol:theifDetails",
						"label": "theif",
						"offset": 0,
						"slot": "0",
						"type": "t_array(t_struct(Theif)8_storage)dyn_storage"
					},
					{
						"astId": 16,
						"contract": "contracts/5_Theif.sol:theifDetails",
						"label": "accountaddress",
						"offset": 0,
						"slot": "1",
						"type": "t_mapping(t_string_memory_ptr,t_uint256)"
					},
					{
						"astId": 19,
						"contract": "contracts/5_Theif.sol:theifDetails",
						"label": "theifsAccts",
						"offset": 0,
						"slot": "2",
						"type": "t_array(t_uint256)dyn_storage"
					}
				],
				"types": {
					"t_array(t_struct(Theif)8_storage)dyn_storage": {
						"base": "t_struct(Theif)8_storage",
						"encoding": "dynamic_array",
						"label": "struct theifDetails.Theif[]",
						"numberOfBytes": "32"
					},
					"t_array(t_uint256)dyn_storage": {
						"base": "t_uint256",
						"encoding": "dynamic_array",
						"label": "uint256[]",
						"numberOfBytes": "32"
					},
					"t_mapping(t_string_memory_ptr,t_uint256)": {
						"encoding": "mapping",
						"key": "t_string_memory_ptr",
						"label": "mapping(string => uint256)",
						"numberOfBytes": "32",
						"value": "t_uint256"
					},
					"t_string_memory_ptr": {
						"encoding": "bytes",
						"label": "string",
						"numberOfBytes": "32"
					},
					"t_string_storage": {
						"encoding": "bytes",
						"label": "string",
						"numberOfBytes": "32"
					},
					"t_struct(Theif)8_storage": {
						"encoding": "inplace",
						"label": "struct theifDetails.Theif",
						"members": [
							{
								"astId": 3,
								"contract": "contracts/5_Theif.sol:theifDetails",
								"label": "name",
								"offset": 0,
								"slot": "0",
								"type": "t_string_storage"
							},
							{
								"astId": 5,
								"contract": "contracts/5_Theif.sol:theifDetails",
								"label": "aadhar",
								"offset": 0,
								"slot": "1",
								"type": "t_string_storage"
							},
							{
								"astId": 7,
								"contract": "contracts/5_Theif.sol:theifDetails",
								"label": "accountaddress",
								"offset": 0,
								"slot": "2",
								"type": "t_uint256"
							}
						],
						"numberOfBytes": "96"
					},
					"t_uint256": {
						"encoding": "inplace",
						"label": "uint256",
						"numberOfBytes": "32"
					}
				}
			},
			"userdoc": {
				"kind": "user",
				"methods": {},
				"version": 1
			}
		}
	}
}